:400000000080002011000000D9050000D905000008B5044B1A6803F53F5302331A6000F0E3FA00BFFA46004010B5054C237833B9044B13B10448AFF300800123237010BDDE
:400040004881FF1F00000000E0170000084B10B51BB108490848AFF300800848036803B910BD074B002BFBD0BDE81040184700BF000000004C81FF1FE0170000C880FF1F14
:400080000000000008B501230B7008B10122027040F2A46001F0C6F90021084600F0A0FF044800F035FF012000F010FB012000F019FB08BDE417000010B50124047040F2B1
:4000C000A46001F023FA0021084600F089FF054800F01EFF204600F011FB204600F01AFB10BD00BFEC17000070B504460E46154600F0B4F820707A280BD0322804D12946EC
:400100003046FFF7BFFF70BD382802D12846FFF7D3FF70BDF0B583B062B600248DF807408DF806407A238DF805304BF6803001F073F94BF6803001F0E3F900F043FF012071
:4001400000F0F4FE01F0ECFA00F00CFE00F0C6FF00F078F801F0B8F901F02AFA40F6B83001F060F940F6B83001F0D0F901F08EFA26462546274601F043FA10F0800F33D043
:400180009DF807303BB1B7F57A7F02D20137BFB201E00A3400279DF806302BB3B5F57A7F02D20135ADB211E000258DF80650284600F08CFA284600F095FA284600F09EFAB2
:4001C000284600F0A7FA012000F0B0FEC72E02D80136B6B208E040F6B83001F023F940F6B83001F093F900260021012000F0F8FEA0B200F013FF00F051FA30B10DF1060162
:400200000DF10700FFF73EFF12E000F04FFA30B102A8012300F8023DFFF74EFF08E000F04DFA28B1012000F081FE00248DF807400DF106020DF107010DF10500FFF754FF62
:4002400099E700BF08B5012001F046FA012001F04FFA012001F058FA08BD00BF08B5002001F046FA01F020FA20B9012001F040FA302008BD01F020FA20B9012001F038FA72
:40028000382008BD01F020FA20B9012001F030FA322008BD012001F02BFA7A2008BD00BFFEE700BFF0B40022174611E050F82760F3B226F0FF0608E001EB420511F81240D8
:4002C0006D78A5550132013BDBB2002BF4D101371F2FEBD9F0BC70470C4B1B78DBB203F007010B4A11701B09013213702022094B1A70012203F687031A702222D5331A703E
:400300004422A3F2E2231A70704700BFCF0100496E580040FC51004008B50A46002101F056FA08BD08B501F047FA08BD38B50922344B1A80182334490B7002310A80334A8B
:4003400013700024023214805021023211704FF49C71023211800232137004222C492D48FFF7E0FF02222C4B1A7008224FF040231A70032103F500731970284B1B78DBB211
:4003800027490B70274B1A8041F25122023B1A8019250CE0244B1B7803F0010343EA440404F003044FF4F07001F0CAF9013D0DB1032CEFD115B90320FFF772FF1B4B4FF4F3
:4003C00080721A8007221A70002219490A704820023108701A700222033B1A7004220A331A70144A137843F00F031370013A137843F001031370013A137843F0800313701A
:4004000038BD00BF80400040824000408640004070060048004100400043004008010049A146004022420040254200400440004006400040A2430040012816D810B4400030
:40044000C0B20A4B53F820101A18147C0A7822EA04020A700130C0B253F820201844017C137823EA0103137010BC7047F4170000012808D8044B03EB800252691844017F57
:4004800013780B4313707047F4170000012809D8054B03EB800252691844017F137823EA01031370704700BFF417000038B572B6334A137843F00403137000240BE03148BB
:4004C00063001A19510001440A46898C106AFFF723FF0134E4B2062CF1D92B494FF09040FFF7E0FE0A24294B1C70294A137843F0020313701032137843F002031370254DDA
:400500002B7843F040032B70A2F58632513A137843F01003137008221F492048FFF702FF08221F491F48FFF7FDFE22461E491F48FFF7F8FE22461E491E48FFF7F3FE082296
:400540001D491E48FFF7EEFE22461D491D48FFF7E9FE1D4A137843F0080313701B4C61232370FFF7E3FE812323700122184B1A70FFF7B2FE0E2229461648FFF7D3FE38BD0F
:40058000E8460040F4170000800000488358004003500140A043004034060048025100403C060048C251004044060048F051004050060048105100405C0600482251004087
:4005C0006406004830510040224300400048004004000840B043004008B501F0C1F803680C2B00D1FEE7FEE708B5104E104D16E029686B68AC68002204E051F8040B43F8B9
:40060000040B0432A242F8D1E868002203E0002143F8041B04328242F9D11035013E002EE6D101F0A3F8FFF775FDFEE7010000006418000008B5104A104B1A60104A1368B4
:4006400043F40073136000230AE0032B03D80D4A52F8231000E00C490C4A42F8231001332F2BF2D90A4B1A780A4B1A70074A0A4B1A60FFF71BFF08BD0004FA050CED00E08B
:4006800014ED00E000000000D90500000080FF1FBC760040C080FF1F08ED00E0024B1878C0F34010704700BFC1510040024B1878C0F30010704700BFC1510040024B18784B
:4006C000C0F3C000704700BFC1510040044A137803F0FE0300F0010018431070704700BF00510040044A137803F0FD03400000F0020018431070704700510040044A137825
:4007000003F0DF03400100F0200018431070704700510040044A137803F0BF03800100F040001843107070470051004038B59DF81040651EEDB2032D51D8013809282ED851
:40074000DFE800F0052D2D052D2D0F192D230F2B03D92548007840B222E02448007840B21EE00F2B03D92248007840B218E02148007840B214E00F2B03D91F48007840B239
:400780000EE01E48007840B20AE00F2B03D91C48007840B204E01B48007840B200E0002001EB401101FB02F2D20B91B20D2B0BD8C3F10E0192B20A4191B2621E124800EB3A
:4007C00082020133937005E0631E0F4A02EB83030F229A70013C0C4B23F8241038BD002000F0BEFD38BD00BF180100491C010049190100491D0100491A0100491E0100491C
:400800001B0100491F0100496481FF1FF8B5074600F09EFF06460D4D2B7843F003032B700B4C237843F0030323700A4B1F70032000F0AEFD2B7803F0FC032B70237803F025
:40084000FC032370304600F087FFF8BDF8460040F946004092580040F8B504460022C14B1A7401285DD13422BF4B1A70042202331A70062201331A70002501331D70013345
:400880001D703F2201331A7002331D7001331D7001331D7001260A331E70502203F527631A700A2201331A702C2201331A7001331D70442203331A70482201331A7001339F
:4008C0001E70022702331F70122201331A70282201331A70EB2201331A705220FFF796FF5822A24B1A7001331D70052205331A7001331F7001331D7001331D70284600F07D
:400900000BFC43F233329A4B1A603146304600F027FC3146082000F0A9FC96491D2000F041FD022C5DD138228F4B1A70042202331A70062201331A70002501331D7001333A
:400940001D703F2201331A7002331D7001331D7001331D7001260A331E70502203F527631A70272201331A702C2201331A7001331D70552203331A705A2201331A700527A6
:4009800001331F7002331E70112201331A70192201331A70972201331A704420FFF736FF5822724B1A7001331D7005331F70022201331A7001331D7001331D70284600F0B6
:4009C000ABFB4FF47A426A4B1A603146384600F0C7FB3146252000F049FC67491D2000F0E1FC032C5DD138225F4B1A70042202331A70062201331A70002501331D70013301
:400A00001D703F2201331A7002331D7001331D7001331D7001260A331E70502203F527631A70272201331A702C2201331A7001331D70552203331A705A2201331A700527E5
:400A400001331F7002331E70112201331A70192201331A70972201331A704420FFF7D6FE5822424B1A7001331D7005331F70022201331A7001331D7001331D70284600F086
:400A80004BFB4FF47A423A4B1A603146384600F067FB3146252000F0E9FB38491D2000F081FC042C5DD138222F4B1A70042202331A70062201331A70002401331C70013351
:400AC0001C703F2201331A7002331C7001331C7001331C7001250A331D70502203F527631A70272201331A702C2201331A7001331C70552203331A705A2201331A7005262D
:400B000001331E7002331D70112201331A70192201331A70972201331A704420FFF776FE5822124B1A7001331C7005331E70022201331A7001331C7001331C70204600F063
:400B4000EBFA4FF47A420A4B1A602946304600F007FB2946252000F089FB09491D2000F021FCF8BD6481FF1F004E0040945800408481FF1F8D0D0000910D0000950D0000B8
:400B8000990D00002DE9F04182B0394D4FF0010885F80080374E00247474102000F0CEFA102000F051FB07211D2000F00FFC0427314B1F7001331C7007331C702F4A137846
:400BC00043F0180313702E4B1C7003F2F5231C7001331C700A22A3F209331A7001331C7002331C705B2205331A705E2201331A7004331C701422A3F68C231A70CDF8008031
:400C000010234FF4004248F6F0510220FFF78EFD0223009310234FF4004249F2DA012046FFF784FD0323009310234FF4004249F2DA012046FFF77AFD009710234FF40042CE
:400C400049F2DA012046FFF771FD2B78013B06EB83039A780B4B1A702B78013B36F82320094B1A802878FFF7F7FD02B0BDE8F081CC80FF1F6481FF1F96580040075B00407F
:400C8000935800400E4E00400C4E004070B500F05FFD06462A4B1B782A4B1A7842F001021A701A7842F010021A7010331A7842F001021A701A7842F010021A70224D2B78E2
:400CC00043F002032B70214C237843F0020323701F4A137843F003031370032000F058FB2B7803F0FD032B70237803F0FD032370184A137843F0060313707A22164B1A70B3
:400D0000164A137843F0010313701032137843F0010313700F3A137843F0040313701032137843F0040313704FF000530C4A1360A2F5C0721360304600F00EFD70BD00BF78
:400D4000CC80FF1FAA430040F8460040F9460040915800407758004082580040A143004080E200E008B5084B9B7C4BB9064BDB7C13F0FF0F01D1FFF705FF0122024B9A74F9
:400D8000FFF784FF08BD00BF6481FF1F704700BF704700BF704700BF704700BF10B50B4C237803F09F032370237803F0F00323702378184340F010002070012000F0E8FAAF
:400DC000237803F0EF03237010BD00BF2051004038B505460E4C237843F020032370237803F0BF032370002000F0D2FA237803F0F003237023781D4345F0100525700120BF
:400E000000F0C6FA237803F0EF03237038BD00BF2051004070B5354B1A7802F08002D2B21A7033490A7802F0F00242F00F020A7001310A7802F0F0020A7001310A7802F07A
:400E4000F0020A701A7802F0DF021A701A7842F040021A704FF4CA76002000F099FA234D2B7843F010032B70012000F091FA214B1C78E4B22B7803F0EF032B70002000F008
:400E800087FA04F00804E4B22B7843F010032B70012000F07DFA2B7803F0EF032B7014B90A2000F075FA013E0CB1002ED4D10F4A137803F0BF031370137803F08003DBB21D
:400EC00013700232137803F0F00313700132137803F0F00343F00F0313700132137803F0F00343F00F03137070BD00BF20510040225100402151004010B50446FFF78AFFDF
:400F00002009FFF765FF04F00F00FFF761FF10BD38B505460078012404E0FFF7EDFF285D0134E4B20028F8D138BD00BF10B50446FFF770FF2009FFF731FF04F00F00FFF7BC
:400F40002DFF10BD08B5282000F00CFA0320FFF725FF052000F006FA0320FFF71FFF0F2000F000FA0320FFF719FF012000F0FAF90220FFF713FF052000F0F4F90620FFF75E
:400F8000D5FF0E20FFF7D2FF2C20FFF7CFFF0820FFF7CCFF0120FFF7C9FF0C20FFF7C6FF0320FFF7C3FF052000F0DCF908BD00BF08B50C20FFF7BAFF0122014B1A7008BD0A
:400FC0007C81FF1F08B5054B5B7823B9FFF7BAFF0122024B5A70FFF7EBFF08BD7C81FF1F08B5032819D8DFE800F002070D1381F08000FFF79BFF08BDA1F14000C0B2FFF738
:4010000095FF08BDA1F16C00C0B2FFF78FFF08BDA1F12C00C0B2FFF789FF08BD10B584B000238DF80E30092211E0144BA3FB0013DB081C4603EB83035900431ADBB23033C1
:4010400004A9114401F80C3C2046013AD2B20928EBD80A4BA3FB0013DB0803EB83035900431ADBB2303304A9114401F80C3C01AB9818FFF74DFF04B010BD00BFCDCCCCCCBF
:401080007222074B1A702022013B1A7006225E3B1A70472210331A70002251331A7070478C64004010B500F053FB04460A4A137843F020031370013A137843F0100313708C
:4010C0000332137843F01003137000F03BF9204600F042FB10BD00BF9C64004008B5054B1B7823B9FFF7CCFF0122024B1A70FFF7D9FF08BD7E81FF1F10B5002404E02046CA
:40110000FFF7C4F90134E4B2012CF8D9FF22014B1A7010BDCD80FF1F10B50446FFF7ECFF2046FFF7A5F9014B1C7010BDCD80FF1F014B188880B2704788400040034B1A784D
:4011400000F0F80010431870704700BF8A400040024B187800F00700704700BF8A40004070B504460D46FFF7F3FF0646FFF7E0FFA04257D02C4B1B7803F00403DAB296B925
:4011800000B184B938B9294B1C80294A137803F0BF03137070BD264A137843F040031370224B1C8070BD22B3002322490B7004260F310E7004310B700C390B7803F07F0300
:4011C0000B701B4B1B7813F0080F00D08CB91A4B18800721013B1970164B1B7813F0010FFAD111490B7803F0FB030B700021114B19700D4B1B7813F0040F0DD00E4B1C806E
:401200000DB1032200E001220A4B1A70094B1B7813F0010FFAD170BD044B1C8002490B7813430B7070BD00BFA2430040884000408A4000400140004002400040014B18885B
:4012400080B2704700410040034B1A7800F0F80010431870704700BF02410040024B187800F00700704700BF0241004070B505460E46FFF7F3FF0446FFF7E0FFA84256D0C0
:401280002B4B1B7803F0010294B900B185B938B9284B1D80284A137803F0BF03137070BD254A137843F040031370224B1D8070BD22B3002321490B70012413310C70043967
:4012C0000B7008390B7803F07F030B701A4B1B7813F0080F00D08DB9194B18800721013B1970164B1B7813F0010FFAD110490B7803F0FE030B700021104B19700C4B1B78A2
:4013000013F0010F0DD00E4B1D800EB1032200E001220A4B1A70094B1B7813F0010FFAD170BD044B1D8002490B7813430B7070BDA1430040004100400241004001400040AE
:4013400002400040054A137843F0080313701032137843F008031370704700BFA243004001BE704710B5044605E0084B186800F0E7F9A4F50044B4F5004FF6D8034B586869
:4013800000FB04F000F0DCF910BD00BFD080FF1F08B5034B1B7A00FB03F000F0D1F908BDD080FF1F70B504460E46074B1D681F2802D90020FFF7D4FF04F01F04103455F8B7
:4013C000240045F8246070BD08ED00E038B504460D46072902D90020FFF7C2FF1F2C02D90020FFF7BDFF04F01F0000F1604000F564406D01EDB2057038BD00BF024A137858
:4014000043F080031370704777650040014B1880704700BF0C6A0040014B1880704700BF8C6A0040014B1880704700BF4C6A0040014B1870704700BF87650040014B18785E
:40144000704700BF67650040014B188880B27047AC6A004008B501E0FFF7F6FFFFF7EEFF10F0100FF8D108BD10B5154A137803F0C00343F0090313701F32137843F001036C
:401480001370104C237843F0010323704BF68030FFF7BCFF4BF68030FFF7BEFF45F6C050FFF7C0FF0020FFF7C3FF00F051F9237843F01003237000F04FF9FFF7CBFF10BD57
:4014C000776500409765004008B5054B1B7823B9FFF7CAFF0122024B1A70FFF78FFF08BD8081FF1F024A137843F080031370704774650040014B1880704700BF086A00400B
:40150000014B1880704700BF886A0040014B1880704700BF486A0040014B1870704700BF85650040014B1878704700BF65650040014B188880B27047A86A004008B501E03E
:40154000FFF7F6FFFFF7EEFF10F0100FF8D108BD10B5154A137803F0C00343F0090313702032137843F001031370104C237843F0010323704BF68030FFF7BCFF4BF68030DE
:40158000FFF7BEFF45F6C050FFF7C0FF0020FFF7C3FF00F0DDF8237843F01003237000F0DBF8FFF7CBFF10BD746500409565004008B5054B1B7823B9FFF7CAFF0122024B19
:4015C0001A70FFF78FFF08BD8181FF1F084A137843F0010313701032137843F00103137002F64D32137843F001031370704700BFA3430040014B1870704700BF034F0040A6
:40160000014B1878704700BF034F0040014B1880704700BF044F0040014B1880704700BF064F004008B5164A137803F0010313700232137803F0FC031370124B1A7802F0B3
:40164000CF021A701A7842F030021A701A7802F0F0021A701A7842F00F021A700A4A137843F00103137045F6BF50FFF7CFFF45F6BF50FFF7D1FF0020FFF7BCFF08BD00BF24
:40168000004F00400B4F0040014F004008B5054B1B7823B9FFF7C6FF0122024B1A70FFF795FF08BD8281FF1F024B1878C0F34010704700BF31510040024B1878C0F3801098
:4016C000704700BF31510040024B187800F00100704700BFF1510040044A137803F0FD03400000F0020018431070704730510040044A137803F0F703C00000F008001843C2
:401700001070704730510040044A137803F0EF03000100F010001843107070473051004010B5002404E02046FEF786FE0134E4B2012CF8D9FF22014B1A7010BDE080FF1FE8
:401740000230800803D000BF01380046FCD17047EFF3108072B6704780F31088704700BF014B1868704700BF4481FF1F0E4B70B51E460E4C0025E41AA410A54204D056F807
:40178000253098470135F8E700F05AF8084B094C1E46E41AA4100025A54204D056F8253098470135F8E770BD4C1800004C1800004C1800005418000010B5431E0A4491425D
:4017C00004D011F8014B03F8014FF8E710BD03460244934202D003F8011BFAE770470000000000004A756D70000000004475636B000000001D510040005B0040FD510040EA
:40180000005B004020020220035B00402443004040000000004F0040180040510040300000000140001000140140000800400140000A004C014000020050014020004300E0
:40184000F8B500BFF8BC08BC9E4670474D00000035060000F8B500BFF8BC08BC9E4670472900000078180000C880FF1F8000000040000000000000000000000001FF000003
:401880000000E02EC05D00001800000000366E01FF00000000000000000000000000000000000000000000000000000000000000000000003E1800000000000000000000EB
:4018C00000000000000000000000000000000000000000000000000000000000000000000000000000000000000000000000000000000000E480FF1F000000000000000066
:4019000000000000000000000000000000000000000000000000000000000000000000000000000000000000000000000000000000000000000000000000000000000000A7
:401940000000000000000000000000000000000000000000000000000000000000000000000000000000000000000000000000000000000000000000000000000000000067
:401980000000000000000000000000000000000000000000000000000000000000000000000000000000000000000000000000000000000000000000000000000000000027
:4019C00000000000000000000000000000000000000000000000000000000000000000000000000000000000000000000000000000000000000000000000000000000000E7
:020000040003F7
:0200000480007A
:40000000044F00400252004003640040026500400105014003090140580A01404D0B0140520C01404B0D0140520E0140360F014040140140201501404216014022170140FE
:400040000418014005190140021B0140024001400141014003420140024401400345014005460140034701400C48014004490140054C0140044D0140055001400151014043
:4000800001800A360D801636148079088B388C728E0F850D870DE60886049208E408020C08100B030F0112031305140C1506160317011C011E061F02220823062401260E24
:4000C000320F341035073A083B203E10580459045C335F0181208202830C85108602870C88049404970199019C049D089F32A201A301A404A538A938AA01AD01B106B2016C
:40010000B301B404B602B738B908BE54BF01C065C102C203C401C5E0C60CC806C9FFCAFFCBFFCC62CDA0CEF0CF41D00CD418D604D804D904DA04DB04DC30DD33DF01E64064
:40014000E702E910EA30EB10ED10EE10EF12001201020404051006540A220B800C400E220F20108013081501171419041A281D401E081F04211023082680275029022C409D
:400180002E042F0930803104320136903704388039203B803D023F04461447404D014E024F2056405C0265406602670886028D108F019094920693049520980299109B0471
:4001C0009D049E04A081A101A213A308A684B003B220B304C07AC2ADC47CCAF1CC7BCECCD070D230D680D8B00002010A0301040C0503081C090C0A030C080F0C130C1413AA
:40020000160C170C1801190C1C0F1D0C1E1020032404281F29032D052E132F023103320F341C350C3A0856025712580459045B045C335D305F0180098210841489068A03EB
:400240008F029106941C9504960299019C109E0CA010A80CA901AA11AD01B106B21FB701B902BF01C004C540C9FFCA07CBFFCC40CD20CEF0CF05D008D804D904DA04DC331E
:40028000DD03DF01E040E1A8E240E320001202100601076409080A020E220F0410801110144015801604170818101C241E20204021402501262027402B0A2C012F08310CD7
:4002C000320133103440351036813704388039303A803C203D423E044040488050405E086E046F1A746075207601772879C07A02920295B0970499109A109B049D209E8037
:400300009F20A001A201A470A508A610A880AB10B021C0FEC2E5C4FACA3CCCF7CEFCD001D640051009230B040D230E010F0C150A160117241C011D031F04220127082801FC
:400340002D402F053001310F3310376039803B023E013F044054410245E046BC470E481E49FF4AFF4BFF4EF04F44500C5401580459045A045B045C305D335F0166C06A4041
:400380006B02830385048720880289078B188D109004911C93019401951C96069702980799189C069E019F04A406A508A601A806A91FAE01B51FB607B720BAA0BB20D804A0
:4003C000D904DC33DF010302052009080A020E260F80108011101580160217241A401D101E062042220726802704282029102A802B082C202F083080310836813724384033
:4004000039203B083CA03E023F8441104280430249014A0250805210530459015A485B10C041C2F5C4EACA6ACCFACEFED005D208D60F2E01340136014010410249FF4AFFE4
:400440004BFF4DA04F045018528058045A045B045F01604062C06440654066C068C06AC06CC06EC0870194019E04A604AA03AF01B001B202B301B404BE10C060C102C5D085
:40048000C620C701C81AC9FFCAFFCBFFCDAFCE0FCF04D018D405D804D904DA04DB04DF01E040E2C0E440E540E6C0E8C0EAC0ECC0EEC00E1110021628180119801A011B104A
:4004C0001E5825082D803E084001412045204F21552056285E485F017002A508AE40B108C2A0C461CA10CE40D02CD220D6D0EC10EE2016011A0130014060410249FF4AFF4C
:400500004BFF4DA04F04501858045A045C015D015F01604062C06440654066C068C06AC06CC06EC0860292019B01A604AA02AD01B002B401B604B701BE01C020C106C5D187
:40054000C702C813C9FFCAFFCBFFCDAFCE0FCF04D018D280D405D804D904DA04DB04DC11DD11DF01E040E2C0E440E540E6C0E8C0EAC0ECC0EEC0000409020C200F20102015
:400580001204184419401B101E8022402940302040044604482849014F2050085204580859015A8071028048C004C268C406CA08CC04D024D224D60BE209B9A2BF51D90400
:4005C000DF0120022102230881028708B001EC103380CC10A7808780A780E6107C08DE010D109C08C20145089C08B110D001EE0487049C08A50824805110581067806B20FB
:4006000083208740C880D4A0D880DA40E290AC10B110B440EE40530493089C08A508D404B008B508E801EC0800080C080E0810031A03000300636300000000003C0000003D
:40064000000000000100000D0C000C00220000000400000F0F00040020000000807F7F0000000000E00000E01A000000000000000800180100000000000000000000000073
:40068000000000000000000000000000000000000000000000000000000000000000000000000000000000000000000000000000000000000000000000000000000000003A
:4006C00000000000000000000000000000000000000000000000000000000000000000000000000000000000000000000000000000000000000000000000000000000000FA
:4007000000000000000000000000000000000000000000000000000000000000000000000000000000000000000000000000000000000000000000000000000000000000B9
:400740000000000000000000000000000000000000000000000000000000000000000000000000000000000000000000000000000000000000000000000000000000000079
:0200000490006A
:0400000000004005B7
:0200000490105A
:04000000BC90ACAF55
:0200000490303A
:020000007D1F62
:0200000490402A
:4000000000000000000000000000000000000000000000000000000000000000000000000000000000000000000000000000000000000000000000000000000000000000C0
:400040000000000000000000000000000000000000000000000000000000000000000000000000000000000000000000000000000000000000000000000000000000000080
:400080000000000000000000000000000000000000000000000000000000000000000000000000000000000000000000000000000000000000000000000000000000000040
:4000C0000000000000000000000000000000000000000000000000000000000000000000000000000000000000000000000000000000000000000000000000000000000000
:0200000490501A
:0C00000000012E16106900012E208D88D2
:00000001FF