:4000000000800020110000001D0800001D08000008B5044B1A6803F53F5302331A6000F005FC00BFFA46004010B5054C237833B9044B13B10448AFF300800123237010BD2C
:400040005081FF1F00000000143F0000084B10B51BB108490848AFF300800848036803B910BD074B002BFBD0BDE81040184700BF000000005481FF1F143F0000C880FF1F4C
:400080000000000008B50B4B1B787BB1094A538801339BB25380B3F5967F07D140F68C2001F076FC034B00225A801A7001F0C0FC08BD00BF6C81FF1F08B50A4B1B796BB140
:4000C000084AD38801339BB2D380B3F57A7F05D1134692680A329A600022DA8001F0A8FC08BD00BF6C81FF1F38B501F07DF9044610F01E0F06D00021012001F0E9F80C48D6
:4001000001F07EF804F0200404F0FF056CB101F073F9084B18706A2802D10122064B1A73642802D10122044B5A73002DDDD138BD183F0000B081FF1F6C81FF1F10B5214B3D
:400140009B7BE3B11F4C228A4FF086411E4B53F8220003F02FFD4FF0864103F023FC03F079FEC0B2194B187001F040FB238A01339BB22382642B21D1002222821EE0114B43
:400180009B7CDBB10F4C228A4FF08641104B53F8220003F00FFD4FF0864103F003FC03F059FEC0B2094B187001F020FB238A01339BB22382642B01D10022228201F0E2FC63
:4001C00010BD00BF6C81FF1F4483FF1FD484FF1FB481FF1F10B50C4B1B7913B901220A4B1A7101240470094801F028F94FF4FA6001F05AFB204600F08BFB204600F094FB9B
:40020000014B9C7310BD00BF6C81FF1F243F000010B501240470084801F010F94FF4FA6001F0B6FB054B9C74204600F089FB204600F092FB10BD00BF2C3F00006C81FF1F63
:4002400038B504460D4600F0C3FE002000F0C8FE10B100F0DDFE2060226847F22F539A4201D800232B7038BD38B504460D4600F0AFFE002000F0B4FE10B100F0C9FE2060D3
:40028000226842F20F739A4201D800232B7038BD38B562B6664C208801F000FB208801F071FB01F007F8012000F0B8FF01F0BEFC00F07AFE01F08AF800F0CCF801F046FB22
:4002C00001F08EFB40F68C2001F0EEFA40F68C2001F05EFB01F0F2FB01F0C0FA002001F085FA01F095FC534801F0DCFC524801F0D1F8524801F004FD514801F029FD0024EA
:4003000023E0322303FB04F34E4D85FB0320DB17C3EB601002F0C8FF01F03AFD03F0ECFA494B43F82400C82303FB04F385FB0320DB17C3EB601002F0B7FF01F029FD03F030
:40034000DBFA424B43F824000134632CD9DD0021012000F0BDFF3E4C208900F0D7FFE37C63B1002000F0D4FA002000F0DDFA0025A57340F68C2001F097FAE574344B1B7817
:4003800043B1002000F0DCFA002000F0E5FA00222F4B9A742E4B1B7D4BB900F0A1FA30B92B4B1B7B1BB900F061F8382807D1284C04F11300FFF70EFF002323752373244BA1
:4003C0005B7D4BB900F094FA30B9214B5B7B1BB900F04CF8322806D11D4C2046FFF718FF00236375637300F08BFA30B1012000F015FF174B00229A601A71002001F026FCDB
:400400000A2001F08BF9124C04F1140104F11800FFF716FF012001F019FC0A2001F07EF904F1150104F11C00FFF71EFF8FE700BFCC80FF1F85000000E90000003D0100006A
:40044000B90000001F85EB514483FF1FB481FF1F6C81FF1F08B5012001F056FB012001F05FFB012001F068FB08BD00BF08B5002001F056FB01F030FB20B9012001F050FBAA
:40048000302008BD01F030FB20B9012001F048FB382008BD01F030FB20B9012001F040FB322008BD012001F03BFB7A2008BD00BFFEE700BFF0B40022174611E050F827607A
:4004C000F3B226F0FF0608E001EB420511F812406D78A5550132013BDBB2002BF4D101371B2FEBD9F0BC70470C4B1B78DBB203F007010B4A11701B09013213702022094B9A
:400500001A70012203F687031A702222D5331A704422A3F2E2231A70704700BFCF0100496E580040FC51004008B50A46002103F0E8FC08BD08B503F0D9FC08BD38B5092253
:40054000344B1A80182334490B7002310A80334A13700024023214805021023211704FF49C71023211800232137004222C492D48FFF7E0FF02222C4B1A7008224FF04023BE
:400580001A70032103F500731970284B1B78DBB227490B70274B1A8041F25122023B1A8019250CE0244B1B7803F0010343EA440404F003044FF4F07001F0DAFB013D0DB19A
:4005C000032CEFD115B90320FFF772FF1B4B4FF480721A8007221A70002219490A704820023108701A700222033B1A7004220A331A70144A137843F00F031370013A1378E1
:4006000043F001031370013A137843F08003137038BD00BF8040004082400040864000402C050048004100400043004008010049A146004022420040254200400440004080
:4006400006400040A2430040012814D810B44000C0B2094B53F820101A18147C0A7822430A700130C0B253F820201844017C13780B43137010BC7047343F0000012816D8E2
:4006800010B44000C0B20A4B53F820101A18147C0A7822EA04020A700130C0B253F820201844017C137823EA0103137010BC7047343F0000012808D8044B03EB8002526985
:4006C0001844017F13780B4313707047343F0000012809D8054B03EB800252691844017F137823EA01031370704700BF343F000038B572B6334A137843F004031370002431
:400700000BE0314863001A19510001440A46898C106AFFF709FF0134E4B2062CF1D92B494FF09040FFF7C6FE0A24294B1C70294A137843F0020313701032137843F002035C
:400740001370254D2B7843F040032B70A2F58632513A137843F01003137008221F492048FFF7E8FE08221F491F48FFF7E3FE22461E491F48FFF7DEFE22461E491E48FFF7C9
:40078000D9FE08221D491E48FFF7D4FE22461D491D48FFF7CFFE1D4A137843F0080313701B4C61232370FFF7C9FE812323700122184B1A70FFF798FE0E2229461648FFF7FA
:4007C000B9FE38BDE8460040343F0000700000488358004003500140A0430040F004004802510040F8040048C251004000050048F05100400C05004810510040180500484F
:40080000225100402005004830510040224300400048004004000840B043004008B503F039FB03680C2B00D1FEE7FEE708B5104E104D16E029686B68AC68002204E051F8D5
:40084000040B43F8040B0432A242F8D1E868002203E0002143F8041B04328242F9D11035013E002EE6D103F01BFBFFF711FDFEE7010000008041000008B5104A104B1A609F
:40088000104A136843F40073136000230AE0032B03D80D4A52F8231000E00C490C4A42F8231001332F2BF2D90A4B1A780A4B1A70074A0A4B1A60FFF71BFF08BD0004FA054D
:4008C0000CED00E014ED00E0000000001D0800000080FF1FBC760040C080FF1F08ED00E0024B1878C0F34010704700BFC1510040024B1878C0F30010704700BFC1510040C6
:40090000024B1878C0F3C000704700BFC1510040044A137803F0FE0300F0010018431070704700BF00510040044A137803F0FD03400000F0020018431070704700510040DE
:40094000044A137803F0DF03400100F0200018431070704700510040044A137803F0BF03800100F040001843107070470051004038B59DF81040651EEDB2032D51D801386D
:4009800009282ED8DFE800F0052D2D052D2D0F192D230F2B03D92548007840B222E02448007840B21EE00F2B03D92248007840B218E02148007840B214E00F2B03D91F482A
:4009C000007840B20EE01E48007840B20AE00F2B03D91C48007840B204E01B48007840B200E0002001EB401101FB02F2D20B91B20D2B0BD8C3F10E0192B20A4191B2621ED3
:400A0000124800EB82020133937005E0631E0F4A02EB83030F229A70013C0C4B23F8241038BD002000F078FE38BD00BF180100491C010049190100491D0100491A01004941
:400A40001E0100491B0100491F0100498C81FF1FF8B5074601F094F906460D4D2B7843F003032B700B4C237843F0030323700A4B1F70032000F068FE2B7803F0FC032B7035
:400A8000237803F0FC032370304601F07DF9F8BDF8460040F946004092580040F8B504460022C14B1A7401285DD13422BF4B1A70042202331A70062201331A700025013345
:400AC0001D7001331D703F2201331A7002331D7001331D7001331D7001260A331E70502203F527631A700A2201331A702C2201331A7001331D70442203331A70482201335A
:400B00001A7001331E70022702331F70122201331A70282201331A70EB2201331A705220FFF796FF5822A24B1A7001331D70052205331A7001331F7001331D7001331D70DA
:400B4000284600F0C5FC43F233329A4B1A603146304600F0E1FC3146082000F063FD96491D2000F0FBFD022C5DD138228F4B1A70042202331A70062201331A700025013372
:400B80001D7001331D703F2201331A7002331D7001331D7001331D7001260A331E70502203F527631A70272201331A702C2201331A7001331D70552203331A705A22013359
:400BC0001A70052701331F7002331E70112201331A70192201331A70972201331A704420FFF736FF5822724B1A7001331D7005331F70022201331A7001331D7001331D701C
:400C0000284600F065FC4FF47A426A4B1A603146384600F081FC3146252000F003FD67491D2000F09BFD032C5DD138225F4B1A70042202331A70062201331A700025013335
:400C40001D7001331D703F2201331A7002331D7001331D7001331D7001260A331E70502203F527631A70272201331A702C2201331A7001331D70552203331A705A22013398
:400C80001A70052701331F7002331E70112201331A70192201331A70972201331A704420FFF7D6FE5822424B1A7001331D7005331F70022201331A7001331D7001331D70EC
:400CC000284600F005FC4FF47A423A4B1A603146384600F021FC3146252000F0A3FC38491D2000F03BFD042C5DD138222F4B1A70042202331A70062201331A700024013385
:400D00001C7001331C703F2201331A7002331C7001331C7001331C7001250A331D70502203F527631A70272201331A702C2201331A7001331C70552203331A705A220133DF
:400D40001A70052601331E7002331D70112201331A70192201331A70972201331A704420FFF776FE5822124B1A7001331C7005331E70022201331A7001331C7001331C70C2
:400D8000204600F0A5FB4FF47A420A4B1A602946304600F0C1FB2946252000F043FC09491D2000F0DBFCF8BD8C81FF1F004E004094580040D884FF1F7D1000008110000073
:400DC00085100000891000002DE9F04182B0394D4FF0010885F80080374E00247474102000F088FB102000F00BFC07211D2000F0C9FC0427314B1F7001331C7007331C7050
:400E00002F4A137843F0180313702E4B1C7003F2F5231C7001331C700A22A3F209331A7001331C7002331C705B2205331A705E2201331A7004331C701422A3F68C231A702F
:400E4000CDF8008010234FF4004248F6F0510220FFF78EFD0223009310234FF4004249F2DA012046FFF784FD0323009310234FF4004249F2DA012046FFF77AFD00971023CC
:400E80004FF4004249F2DA012046FFF771FD2B78013B06EB83039A780B4B1A702B78013B36F82320094B1A802878FFF7F7FD02B0BDE8F081CF80FF1F8C81FF1F965800402F
:400EC000075B0040935800400E4E00400C4E004070B500F055FF06462A4B1B782A4B1A7842F001021A701A7842F010021A7010331A7842F001021A701A7842F010021A7018
:400F0000224D2B7843F002032B70214C237843F0020323701F4A137843F003031370032000F012FC2B7803F0FD032B70237803F0FD032370184A137843F0060313707A228E
:400F4000164B1A70164A137843F0010313701032137843F0010313700F3A137843F0040313701032137843F0040313704FF000530C4A1360A2F5C0721360304600F004FF3F
:400F800070BD00BFCF80FF1FAA430040F8460040F9460040915800407758004082580040A143004080E200E008B5084B9B7C4BB9064BDB7C13F0FF0F01D1FFF705FF012223
:400FC000024B9A74FFF784FF08BD00BF8C81FF1F024A137843F0010313707047004E0040094B1B7C13F0FF0F03D0074B5B7CDBB203E0064B1B7803F00103012B01D0002830
:40100000EED01846704700BF8C81FF1F014E0040154B1B7803F00303012B07D8134B1888023B1B889BB243EA004013E0022B0AD10E4B1888023B1B7843EA00430C4A1078C3
:4010400043EA002006E00B4B188883B2074A108843EA0040084B1B7C13F0FF0F02D00022054B5A74704700BF144E0040124E0040114E0040104E00408C81FF1F704700BF19
:40108000704700BF704700BF704700BF10B50B4C237803F09F032370237803F0F00323702378184340F010002070012000F04CFB237803F0EF03237010BD00BF205100406D
:4010C00038B505460E4C237843F020032370237803F0BF032370002000F036FB237803F0F003237023781D4345F010052570012000F02AFB237803F0EF03237038BD00BFCB
:401100002051004070B5354B1A7802F08002D2B21A7033490A7802F0F00242F00F020A7001310A7802F0F0020A7001310A7802F0F0020A701A7802F0DF021A701A7842F0CF
:4011400040021A704FF4CA76002000F0FDFA234D2B7843F010032B70012000F0F5FA214B1C78E4B22B7803F0EF032B70002000F0EBFA04F00804E4B22B7843F010032B705D
:40118000012000F0E1FA2B7803F0EF032B7014B90A2000F0D9FA013E0CB1002ED4D10F4A137803F0BF031370137803F08003DBB213700232137803F0F00313700132137884
:4011C00003F0F00343F00F0313700132137803F0F00343F00F03137070BD00BF20510040225100402151004010B50446FFF78AFF2009FFF765FF04F00F00FFF761FF10BD9C
:4012000038B505460078012404E0FFF7EDFF285D0134E4B20028F8D138BD00BF10B50446FFF770FF2009FFF731FF04F00F00FFF72DFF10BD08B5282000F070FA0320FFF7F1
:4012400025FF052000F06AFA0320FFF71FFF0F2000F064FA0320FFF719FF012000F05EFA0220FFF713FF052000F058FA0620FFF7D5FF0E20FFF7D2FF2C20FFF7CFFF0820D5
:40128000FFF7CCFF0120FFF7C9FF0C20FFF7C6FF0320FFF7C3FF052000F040FA08BD00BF08B50C20FFF7BAFF0122014B1A7008BDA481FF1F08B5054B5B7823B9FFF7BAFFF5
:4012C0000122024B5A70FFF7EBFF08BDA481FF1F08B5032819D8DFE800F002070D1381F08000FFF79BFF08BDA1F14000C0B2FFF795FF08BDA1F16C00C0B2FFF78FFF08BD81
:40130000A1F12C00C0B2FFF789FF08BD10B584B000238DF80E30092211E0144BA3FB0013DB081C4603EB83035900431ADBB2303304A9114401F80C3C2046013AD2B2092837
:40134000EBD80A4BA3FB0013DB0803EB83035900431ADBB2303304A9114401F80C3C01AB9818FFF74DFF04B010BD00BFCDCCCCCC7222074B1A70202201331A7006225F3B23
:401380001A70472210331A70002251331A7070478A64004010B500F0F3FC04460A4A137843F0200313700132137843F0100313700232137843F01003137000F09FF92046B5
:4013C00000F0E2FC10BD00BF9A64004008B5054B1B7823B9FFF7CCFF0122024B1A70FFF7D9FF08BDA681FF1F024B187800F07F00704700BF6B640040084B1B78DBB213F0FF
:40140000200F06D0064A1078C0B213F01E0F02D17047002070470020704700BF6B6400404B640040034B1B7813F0040FFAD1024B187070476D6400404D64004038B5074BA9
:401440001B782BB938BDFFF7EDFF0134A4B201E005460024285D0028F5D138BDA681FF1F014B1B685864704708ED00E04001C0B2014B1870704700BF01E400E00222014B4D
:401480001A60704700E100E00222014B1A60704780E100E010B50446FFF7F6FF2046FFF7DFFF0720FFF7E2FFFFF7E8FF10BD00BF10B5002404E02046FFF70AF90134E4B2C6
:4014C000012CF8D9FF22014B1A7010BDD080FF1F10B50446FFF7ECFF2046FFF7EBF8014B1C7010BDD080FF1F014B188880B2704788400040034B1A7800F0F80010431870FA
:40150000704700BF8A400040024B187800F00700704700BF8A40004070B504460D46FFF7F3FF0646FFF7E0FFA04257D02C4B1B7803F00403DAB296B900B184B938B9294BD1
:401540001C80294A137803F0BF03137070BD264A137843F040031370224B1C8070BD22B3002322490B7004260F310E7004310B700C390B7803F07F030B701B4B1B7813F018
:40158000080F00D08CB91A4B18800721013B1970164B1B7813F0010FFAD111490B7803F0FB030B700021114B19700D4B1B7813F0040F0DD00E4B1C800DB1032200E001223B
:4015C0000A4B1A70094B1B7813F0010FFAD170BD044B1C8002490B7813430B7070BD00BFA2430040884000408A4000400140004002400040014B188880B270470041004014
:40160000034B1A7800F0F80010431870704700BF02410040024B187800F00700704700BF0241004070B505460E46FFF7F3FF0446FFF7E0FFA84256D02B4B1B7803F0010267
:4016400094B900B185B938B9284B1D80284A137803F0BF03137070BD254A137843F040031370224B1D8070BD22B3002321490B70012413310C7004390B7008390B7803F070
:401680007F030B701A4B1B7813F0080F00D08DB9194B18800721013B1970164B1B7813F0010FFAD110490B7803F0FE030B700021104B19700C4B1B7813F0010F0DD00E4BC7
:4016C0001D800EB1032200E001220A4B1A70094B1B7813F0010FFAD170BD044B1D8002490B7813430B7070BDA143004000410040024100400140004002400040054A1378D8
:4017000043F0080313701032137843F008031370704700BFA243004001BE704710B5044605E0084B186800F023FBA4F50044B4F5004FF6D8034B586800FB04F000F018FBD1
:4017400010BD00BFD480FF1F08B5034B1B7A00FB03F000F00DFB08BDD480FF1F70B504460E46074B1D681F2802D90020FFF7D4FF04F01F04103455F8240045F8246070BD4F
:4017800008ED00E038B504460D46072902D90020FFF7C2FF1F2C02D90020FFF7BDFF04F01F0000F1604000F564406D01EDB2057038BD00BF054A137843F0010313701032A7
:4017C000137843F001031370704700BFA8430040054B1A7802F0FD021A701A7800F0020010431870704700BF20580040014B1870704700BF805B0040064B1B78C3F3810396
:4018000003F19243063393F82031DBB2024A1370704700BF205800400846004008B5064B1A7802F0F3021A701A7800F00C0010431870FFF7E1FF08BD2058004010B50024FC
:40184000054B1C7001331C702046FFF7E7FF2046FFF7BEFF10BD00BF2058004008B5074B1B7823B9FFF7EAFF0122044B1A70FFF7A1FF6420FFF7BAFF08BD00BFA881FF1F40
:40188000024A137843F080031370704777650040014B1880704700BF0C6A0040014B1880704700BF8C6A0040014B1880704700BF4C6A0040014B1870704700BF87650040DF
:4018C000014B1878704700BF67650040014B188880B27047AC6A004008B501E0FFF7F6FFFFF7EEFF10F0100FF8D108BD10B5154A137803F0C00343F0090313701F32137843
:4019000043F001031370104C237843F0010323704BF68030FFF7BCFF4BF68030FFF7BEFF45F6C050FFF7C0FF0020FFF7C3FF00F027FA237843F01003237000F025FAFFF784
:40194000CBFF10BD776500409765004008B5054B1B7823B9FFF7CAFF0122024B1A70FFF78FFF08BDA981FF1F024A137843F080031370704775650040014B1880704700BF77
:40198000086A0040014B1880704700BF886A0040014B1880704700BF486A004008B50F4A137803F0C00343F0090313701F32137843F0010313700132137843F00103137076
:4019C0004BF68030FFF7D8FF4BF68030FFF7DAFF45F6C050FFF7DCFF08BD00BF7565004008B5054B1B7823B9FFF7D8FF0122024B1A70FFF7B9FF08BDAA81FF1F084A1378D3
:401A000043F0010313701032137843F00103137002F64D32137843F001031370704700BFA3430040014B1870704700BF034F0040014B1878704700BF034F0040014B188069
:401A4000704700BF044F0040014B1880704700BF064F004008B5164A137803F0010313700232137803F0FC031370124B1A7802F0CF021A701A7842F030021A701A7802F0D8
:401A8000F0021A701A7842F00F021A700A4A137843F00103137045F6BF50FFF7CFFF45F6BF50FFF7D1FF0820FFF7BCFF08BD00BF004F00400B4F0040014F004008B5054B71
:401AC0001B7823B9FFF7C6FF0122024B1A70FFF795FF08BDAB81FF1F024B1878C0F34010704700BF31510040024B1878C0F38010704700BF31510040024B187800F00100EB
:401B0000704700BFF1510040044A137803F0FD03400000F0020018431070704730510040044A137803F0F703C00000F0080018431070704730510040044A137803F0EF03CD
:401B4000000100F0100018431070704730510040084A137843F0020313701032137843F00203137002F65932137843F001031370704700BFA3430040014B1870704700BF43
:401B80000F4F0040014B1878704700BF0F4F0040014B1880704700BF104F0040014B1880704700BF124F004008B5164A137803F0010313700232137803F0FC031370124BF0
:401BC0001A7802F0CF021A701A7842F030021A701A7802F0F0021A701A7842F00F021A700A4A137843F0010313704FF6FF70FFF7CFFF4FF6FF70FFF7D1FF0020FFF7BCFFCB
:401C000008BD00BF0C4F0040174F00400D4F004008B5054B1B7823B9FFF7C6FF0122024B1A70FFF795FF08BDAC81FF1F10B5002404E02046FEF722FD0134E4B2012CF8D968
:401C4000FF22014B1A7010BDE480FF1F10B50446FFF7ECFF2046FEF7F7FC014B1C7010BDE480FF1F024B1B68C3F88400704700BF08ED00E04001C0B2014B1870704700BF62
:401C800011E400E04FF40032014B1A60704700BF00E100E04FF40032014B1A60704700BF80E100E010B50446FFF7F4FF2046FFF7D9FF0720FFF7DEFFFFF7E4FF10BD00BF60
:401CC000024B1B68C3F88800704700BF08ED00E04001C0B2014B1870704700BF12E400E04FF48022014B1A60704700BF00E100E04FF48022014B1A60704700BF80E100E06F
:401D000010B50446FFF7F4FF2046FFF7D9FF0720FFF7DEFFFFF7E4FF10BD00BF014B1B681864704708ED00E04001C0B2014B1870704700BF00E400E00122014B1A607047E0
:401D400000E100E00122014B1A60704780E100E010B50446FFF7F6FF2046FFF7DFFF0720FFF7E2FFFFF7E8FF10BD00BF000000000230800803D000BF01380046FCD17047D7
:401D8000EFF3108072B6704780F31088704700BF30B5214A21F00043934287B01BDD1F4A934205DD02460B4601F030F907B030BD02AA00F035F800F0030001281ED0022835
:401DC00011D0DDE9042300B3DDE9020100F040FA01F10041EAE7002300930022002300F053FF07B030BD01230093DDE90201DDE9042300F049FF01F10041D7E7DDE9042307
:401E0000DDE9020100F024FAD0E70124DDE90201009400F039FFC9E7FB21E93FFFFFEF7F2DE9F04F944C21F00047A7428FB040F381801446914A0E46974226DC84A3D3E9DA
:401E40000023002940F3A08101F0E0F88C4B80469F42894600F083807FA3D3E9002301F0D5F802460B464046C4E90023494601F0CDF879A3D3E9002301F0C8F80125C4E947
:401E8000020128460FB0BDE8F08F7E4A974240F383807D4A974258DC3D15A5F21645A7EB05518B46824601F0FFFC01F0FDF98046894642464B4650465946CDE9088901F070
:401EC000A5F80022714B01F055FA8B46824601F0EBFC01F0E9F98046894642464B4650465946CDE90A8901F091F80022674B01F041FA00220023CDE90C0101F0A3FC00287D
:401F000000F06A81002340464946002201F09AFC002814BF012302235D480221019000912A46214608A800F0B7FA002EC0F24A81054606E0C2E9000100250024C2E90245CC
:401F4000002528460FB0BDE8F08F02460B4601F05DF80025C4E90201C4E90001F1E740A3D3E9002301F052F83FA3D3E9002306460F4601F04BF802460B463046C4E900233F
:401F8000394601F043F838A3D3E9002301F03EF80125C4E90201D4E700F02CFF34A3D3E900238046894601F0E5F90022394B01F02FF801F079FC054601F076F924A3D3E97D
:401FC0000023CDE9040101F0D5F902460B464046494601F01BF820A3D3E9002382468B46DDE9040101F0C6F91F2DCDE9020155DC294B6A1E53F822309F424FD002460B4674
:402000005046594601F002F802460B4681468846C4E900234A4643465046594600F0F6FFDDE9022300F0F2FF02460B46002EC4E9022386DA4A4608F1004301F1004184E81F
:402040000C00E160A0606D427BE700BFAFF3008000004054FB21F93F3163621A61B4D03D0000601A61B4D03D7370032E8A19A33B83C8C96D305FE43FFB21E93F7BD90240C9
:40208000FB21F93FFB213941FFFFEF7F00007041004000000000E03F803F0000DDE902235046594600F0B2FF3F15C1F30A53FB1A102B81468846C4E90001ABDD58A3D3E903
:4020C0000023DDE9040101F055F98046894602460B465046594600F099FFCDE9060102460B465046594600F091FF42464B4600F08DFF4DA3D3E9002380468946DDE90401F9
:4021000001F038F942464B4600F080FF02460B46CDE90201DDE9060100F078FF0B4602468846C1F30A517F1A312F8146C4E9002372DD3FA3D3E90023DDE9040101F01AF98A
:402140008046894602460B46DDE9060100F05EFF02460B4682468B46DDE9060100F056FF42464B4600F052FF33A3D3E9002380468946DDE9040101F0FDF842464B4600F075
:4021800045FFCDE9020139E700F042FF2E4B80469F42894622D02AA3D3E9002300F038FF02460B464046C4E90023494600F02EFF23A3D3E9002300F02BFF4FF0FF35C4E9A3
:4021C0000201BEE66268E36802F1004203F1004345426260E360B4E603239DE610A3D3E9002300F015FF10A3D3E9002306460F4600F00EFF02460B463046C4E900233946C4
:4022000000F004FF08A3D3E9002300F001FF4FF0FF35C4E9020194E6DDE906ABFAE600BF0000601A61B4D03D7370032E8A19A33B0000002E8A19A33BC14920259A837B397E
:402240003163621A61B4D03DFB21F93F000000002DE9F04F21F00046B6F1795F85B00C4692469B4605466BDA01F01EFB002800F0E7802A4623462846214601F07BF874A32B
:40228000D3E900238046894601F074F872A3D3E9002300F0BDFE42464B4601F06BF870A3D3E9002300F0B2FE42464B4601F062F86DA3D3E9002300F0ABFE42464B4601F0B9
:4022C00059F86BA3D3E9002300F0A0FE42464B4601F050F868A3D3E9002300F099FE42464B4601F047F8CDE900010022644B4046494601F03FF8DDE9002306460F46404631
:40230000494601F037F85246804689465B462846214601F02FF802460B464046494600F075FE02460B463046394600F06FFE02460B460020534900F069FE05B0BDE8F08FB2
:4023400002460B4601F016F841A3D3E900238046894601F00FF840A3D3E9002300F058FE42464B4601F006F83DA3D3E9002300F04DFE42464B4600F0FDFF3BA3D3E90023A9
:4023800000F046FE42464B4600F0F4FF38A3D3E9002300F03BFE42464B4600F0EBFF36A3D3E9002300F034FE4B46424600F0E2FF354BCDE900019E4297DD344B00229E4247
:4023C00038DCA6F5001300202E4916461F4600F01DFECDE902010022294B4046494600F0C9FF32463B4600F011FEDDE9002306460F464046494600F0BDFF5246804689462C
:402400005B462846214600F0B5FF02460B464046494600F0FBFD02460B463046394600F0F5FD02460B46DDE9020100F0EFFD05B0BDE8F08F164B0026CDE90223154FCAE7EE
:402440001049002005B0BDE8F08F00BFAFF30080D43888BEE9FAA8BDC4B1B4BD9EEE213EAD529C804F7E923E9015CB19A001FA3E7751C1166CC1563F4C5555555555A53F6A
:402480000000E03F0000F03F3233D33F0000E93F0000E73F0000D23F2DE9F04F794CADF51D7D1F460B93D31E84FB0354DB17C3EBA403A69E744C23EAE37554F826406B1CEF
:4024C00026460994A3EB83037C1E0D95029402EBC3032D1B341904900A91089316D42C44013422AEA79F08E057F8250000F0DCFE0135A542E6E9020108D0002DF4DA013518
:4025000000200021A542E6E90201F6D1099B002B2FDB099B74AADDF8089002EBC30B0DF5E47A029B002BC0F295810B9B0026C3EB090824AB03EBC808049B0027A3F10805A8
:4025400024AB03EBC904F5E9022374E8020100F011FF02460B463046394600F059FD444506460F46EFD1EAE90267DA4509F10109D7D1099B10A91D4603F18043023B9B005B
:402580001A1D0A440B440F920E939CAB03EBC503002D53E928672BDD9CAB03EBC504A83C0DF13C0A0DF5E47B0022384B3046394600F0E0FE01F078F900F076FE0022344BB2
:4025C0008046894600F0D6FE02460B463046394600F01CFD01F068F974E802234AF8040F4946404600F014FD5C4506460F46DBD1089C30463946224600F08AFC00224FF0E7
:402600007F5306460F4600F0B5FE00F0F9FB0022204B00F0AFFE02460B463046394600F0F5FC0F46064601F03FF9814600F03CFE02460B463046394600F0E8FC002C064672
:402640000F4640F3EE80681E10AB53F82030C4F1180243FA02F101FA02F29B1AC4F1170810AA42F82030894443FA08F8B8F1000F3DDD002D09F1010940F3D38200221446BC
:402680000FA911E0ABAAAA2A084100000000703E0000704100002040C3F180700BB108600124013295420DDD51F8043F002CF3D0C3F1FF13013203F57F4395420B604FF0B0
:4026C0000104F1DC089B002B0DDD012B00F0B180022B08D16A1E10AB53F8223010A9C3F3150341F82230B8F1020F00F08180002200233046394601F0A5F8002800F05B82A3
:40270000099B05F1FF3B5B4510DC05F1804310AA013B0F9802EB8303002253F80419834242EA0102F9D1002A40F0B180099B10AA013B52F82330002B40F071820E9A01234C
:4027400052F8041901330029FAD0E9186A1C8A420C914BDC0D990B985118DB0001F180410593A79B05440139E80003EB810A24ABD20003EB000B74AB13440193A2F1080374
:40278000069007934FF000095AF8040F00F08CFD029BEBE80201002B4FF000064FF000071BDB069B03EB0904079B09EB030824AB1C449844049BA3F10805F5E9022374E8BD
:4027C000020100F0D7FD02460B463046394600F01FFC444506460F46EFD1019B09F10809E3E802670193059B9945CDD10C9DCCE632463B460020B04900F008FC06460F4602
:40280000002C3FF474AF089A0020AB4900F080FB02460B463046394600F0F8FB06460F4665E710D16B1E10AA52F823304FEAE3581CE76A1E10AB53F8223010A9C3F31603F7
:4028400041F822304FE700229C4B01F019F858B980464CE700260027EAE90267DA4509F101097FF45EAE84E6002D09F10109C8BF4FF002083FF702AF32463B4600208E4915
:4028800000F0C4FB4FF0020806460F462FE7089A10AB53F82B30183ACDF81490CDF8048008926BB90BF18043013B10A901EB830353F804190BF1FF3B183A0029F8D0089203
:4028C000089A00207C4900F023FBBBF1000F04460D46C0F2B6814FEACB030DF5E87810AA02EB8B0608EB03090493043609F1080756F8040D00F0D8FC22462B4600F03AFD65
:40290000002267E902016E4B2046294600F032FDB84504460D46EBD14B46CDF818B09B460DF5987ACDF808A0DDF824A04FF00009BAF1000FC0F226815DA3D3E90023DFF8F5
:4029400084815D4600260027002403E0A14510DBF8E90223F5E8020100F00CFD02460B463046394600F054FB0134A24506460F46ECDA029BABF1080B03EBC903C3E9006742
:4029800072AB5B4509F10109D2D1A69BDDF818B0DDF808A0032B00F28380DFE813F0D100950095000400BBF1000F40F35481049BCDF808B053449846D3E90067D34658E99B
:4029C000029A32463B464846514600F021FB04460D4602460B464846514600F017FB32463B4600F015FBC8E9000168E90245C34526462F46E3D1DA46DDF808B0BBF1010F6B
:402A000040F32981049B0DF59C7B53449846D3E90067994659E902343046CDE902341A463946234600F0F4FA04460D4602460B46DDE9020100F0EAFA32463B4600F0E8FAEC
:402A4000C9E9000169E90245CB4526462F46E1D100231D4608F1080850AC184678E90223294600F0D5FA444503460D46F5D1019A002A00F0D880DAF80440DAF80C200A9F15
:402A8000DAF80010DAF8080005F1004504F1004402F100427D613B617C60FA603960B860059B03F007000DF51D7DBDE8F08F00BF00000040FB21F93F0000F03F0000E03F55
:402AC0000000703E1841000000242146049D0835554475E90223204600F09AFA55450446F7D1019B002B50D00A9F01F100450B46DAE9000187E83000224600F087FABBF1B4
:402B0000000F03460D460DDD01241846FAE90223294600F07DFA0134A34503460D46F4DA019A0AB105F10045184629460A9BC3E90201059B03F007000DF51D7DBDE8F08F0C
:402B400000231C46049A0832924418467AE90223214600F05DFA0BF1FF3BBBF1FF3F03460C46F2D1019A0AB104F10044184621460A9BC3E90001059B03F007000DF51D7D34
:402B8000BDE8F08F00260027F3E626460F4622460A9C0B46DAE90001C4E9006700F036FABBF1000F03460D46AEDC184629460A9BC3E90201BDE7089B30465A423946CDF814
:402BC0001490CDF8048000F0A3F900222C4B06460F4600F055FE002840D00022294B3046394600F0C7FB00F05FFE044600F05CFB0022234B00F0BEFB0B46024639463046C5
:402C000000F004FA00F050FE089B05F1010B1833089310AB43F8250043F82B4050E6012393E500244EE51846DAE90067DAE9022329460A9DC5E90067C5E90401C5E90223D2
:402C40002EE7A69B032B3FF62BAFDFE803F0151010020DF5987A00231D4608E73046394600F022FE10ABAB4643F8250028E6002421460DF5987A34E700231C4672E700BFD1
:402C8000000070410000703E2DE9F04F21F00046B6F1795F85B00C4690469946054604DA00F002FE002800F085802A4623462846214600F05FFB06460F4602460B46284678
:402CC000214600F057FB3EA3D3E9002382468B463046394600F04EFB3BA3D3E9002300F095F932463B4600F045FB39A3D3E9002300F08EF932463B4600F03CFB36A3D3E959
:402D0000002300F083F932463B4600F033FB34A3D3E9002300F07CF90E9BCDE900019BB30022334B4046494600F024FBDDE90023CDE902015046594600F01CFB02460B46E9
:402D4000DDE9020100F062F932463B4600F012FB42464B4600F05AF923A3D3E9002306460F465046594600F005FB02460B463046394600F04DF902460B462846214600F060
:402D800045F905B0BDE8F08F02460B463046394600F0F0FA14A3D3E9002300F037F952465B4600F0E7FA2A46234600F031F905B0BDE8F08F2846214605B0BDE8F08F00BF9B
:402DC0007CD5CF5A3AD9E53DEB9C2B8AE6E55A3E7DFEB157E31DC73ED561C119A0012A3FA6F810111111813F495555555555C53F0000E03F21F00041704700BF0000000065
:402E0000C1F30A522DE9F843A2F2FF36132E0B4604460D46884607461CDC002E3FDB3A4A864642FA06F901EA0902024317D034A3D3E9002300F0ECF80022002300F02AFD4B
:402E400020B1002D40DB28EA0905002738462946BDE8F883332E06DDB6F5806F2FD020461946BDE8F883A2F213424FF0FF3929FA02F910EA090FF2D021A3D3E9002300F03E
:402E8000C7F80022002300F005FD0028DED0002D20DB454627EA090738462946D8E718A3D3E9002300F0B4F80022002300F0F2FC0028CBD0002D18DB00273D46C6E70246EB
:402EC0000B4600F0A5F8CCE74FF4801343FA06F6B044B8E7142E10D00123C6F1340603FA06F6371928BF9844D3E725F00042074B224318BF1D460027A8E705F10108C8E7F6
:402F00009C7500883CE4377EFFFF0F000000F0BFF8B5C1F30A5604460D460B46174606BB21F00043034325D000222F4B00F022FA2E4A044697420D460B462ADBC1F30A560B
:402F4000363E40F2FE723E44964228DC002E12DD23F0FF4323F4E00343EA065520462946F8BD40F2FF729642EBD102460B4600F04FF8F8BDF8BD16F1350F1DDA4CF25033EB
:402F80009F420CDC14A1D1E9000122462B4600F031F811A3D3E9002300F0ECF9F8BD22460FA1D1E900012B4600F024F80CA3D3E9002300F0DFF9F8BD23F0FF4323F4E0031F
:402FC000363643EA0655204629460022084B00F0D1F9F8BDAFF3008059F3F8C21F6EA5019C7500883CE4377E00005043B03CFFFF0000903C03F0004321F0004242EA030159
:40300000704700BF81F0004102E000BF83F0004330B54FEA41044FEA430594EA050F08BF90EA020F1FBF54EA000C55EA020C7FEA645C7FEA655C00F0E2804FEA5454D4EB8F
:403040005555B8BF6D420CDD2C4480EA020281EA030382EA000083EA010180EA020281EA0303362D88BF30BD11F0004F4FEA01314FF4801C4CEA113102D0404261EB410103
:4030800013F0004F4FEA03334CEA133302D0524263EB430394EA050F00F0A780A4F10104D5F1200E0DDB02FA0EFC22FA05F2801841F1000103FA0EF2801843FA05F3594172
:4030C0000EE0A5F120050EF1200E012A03FA0EFC28BF4CF0020C43FA05F3C01851EBE37101F0004507D54FF0000EDCF1000C7EEB00006EEB0101B1F5801F1BD3B1F5001F06
:403100000CD349085FEA30004FEA3C0C04F101044FEA445212F5800F80F09A80BCF1004F08BF5FEA500C50F1000041EB045141EA050130BD5FEA4C0C404141EB010111F4DF
:40314000801FA4F10104E9D191F0000F04BF01460020B1FA81F308BF2033A3F10B03B3F120020CDA0C3208DD02F1140CC2F10C0201FA0CF021FA02F10CE002F11402D8BF93
:40318000C2F1200C01FA02F120FA0CFCDCBF41EA0C019040E41AA2BF01EB0451294330BD6FEA04041F3C1CDA0C340EDC04F11404C4F1200220FA04F001FA02F340EA030099
:4031C00021FA04F345EA030130BDC4F10C04C4F1200220FA02F001FA04F340EA0300294630BD21FA04F0294630BD94F0000F83F4801306BF81F480110134013D4EE77FEA96
:40320000645C18BF7FEA655C29D094EA050F08BF90EA020F05D054EA000C04BF1946104630BD91EA030F1EBF0021002030BD5FEA545C05D14000494128BF41F0004130BDF5
:4032400014F580043CBF01F5801130BD01F0004545F0FE4141F470014FF0000030BD7FEA645C1ABF194610467FEA655C1CBF0B46024650EA013406BF52EA033591EA030F4C
:4032800041F4002130BD00BF90F0000F04BF0021704730B54FF4806404F132044FF000054FF0000150E700BF90F0000F04BF0021704730B54FF4806404F1320410F000458B
:4032C00048BF40424FF000013EE700BF42004FEAE2014FEA31014FEA02701FBF12F07F4393F07F4F81F06051704792F0000F14BF93F07F4F704730B54FF4607401F0004543
:4033000021F0004120E700BF50EA010208BF704730B54FF000050AE050EA010208BF704730B511F0004502D5404261EB41014FF4806404F132045FEA915C3FF4DCAE4FF056
:4033400003025FEADC0C18BF03325FEADC0C18BF033202EBDC02C2F1200300FA03FC20FA02F001FA03FE40EA0E0021FA02F11444C1E600BF70B54FF0FF0C4CF4E06C1CEA27
:4033800011541DBF1CEA135594EA0C0F95EA0C0F00F0DEF82C4481EA030621EA4C5123EA4C5350EA013518BF52EA033541F4801143F4801338D0A0FB02CE4FF00005E1FB4F
:4033C00002E506F00042E0FB03E54FF00006E1FB03569CF0000F18BF4EF0010EA4F1FF04B6F5007F64F5407404D25FEA4E0E6D4146EB060642EAC62141EA55514FEAC5207B
:4034000040EA5E504FEACE2EB4F1FD0C88BFBCF5E06F1ED8BEF1004F08BF5FEA500E50F1000041EB045170BD06F0004646EA010140EA020081EA0301B4EB5C04C2BFD4EBF1
:403440000C0541EA045170BD41F480114FF0000E013C00F3AB8014F1360FDEBF002001F0004170BDC4F10004203C35DA0C341BDC04F11404C4F1200500FA05F320FA04F078
:4034800001FA05F240EA020001F0004221F0004110EBD37021FA04F642EB06015EEA430E08BF20EAD37070BDC4F10C04C4F1200500FA04F320FA05F001FA04F240EA02004C
:4034C00001F0004110EBD37041F100015EEA430E08BF20EAD37070BDC4F1200500FA05F24EEA020E20FA04F301FA05F243EA020321FA04F001F0004121FA04F220EA0200A9
:4035000000EBD3705EEA430E08BF20EAD37070BD94F0000F0FD101F00046400041EB010111F4801F08BF013CF7D041EA060195F0000F18BF704703F00046520043EB0303E9
:4035400013F4801F08BF013DF7D043EA0603704794EA0C0F0CEA135518BF95EA0C0F0CD050EA410618BF52EA4306D1D181EA030101F000414FF0000070BD50EA410606BFD6
:403580001046194652EA430619D094EA0C0F02D150EA013613D195EA0C0F05D152EA03361CBF104619460AD181EA030101F0004141F0FE4141F470014FF0000070BD41F083
:4035C000FE4141F4780170BD70B54FF0FF0C4CF4E06C1CEA11541DBF1CEA135594EA0C0F95EA0C0F00F0A7F8A4EB050481EA030E52EA03354FEA013100F088804FEA0333E5
:403600004FF0805545EA131343EA12634FEA022245EA111545EA10654FEA00260EF000419D4208BF964244F1FD0404F5407402D25B084FEA3202B61A65EB03055B084FEAC2
:4036400032024FF480104FF4002CB6EB020E75EB030E22BFB61A754640EA0C005B084FEA3202B6EB020E75EB030E22BFB61A754640EA5C005B084FEA3202B6EB020E75EB4B
:40368000030E22BFB61A754640EA9C005B084FEA3202B6EB020E75EB030E22BFB61A754640EADC0055EA060E18D04FEA051545EA16754FEA06164FEAC30343EA52734FEA9C
:4036C000C2025FEA1C1CC0D111F4801F0BD141EA00014FF000004FF0004CB6E711F4801F04BF01430020B4F1FD0C88BFBCF5E06F3FF6AFAEB5EB030C04BFB6EB020C5FEA25
:40370000500C50F1000041EB045170BD0EF0004E4EEA113114EB5C04C2BFD4EB0C0541EA045170BD41F480114FF0000E013C90E645EA060E8DE60CEA135594EA0C0F08BFE1
:4037400095EA0C0F3FF43BAF94EA0C0F0AD150EA01347FF434AF95EA0C0F7FF425AF104619462CE795EA0C0F06D152EA03353FF4FDAE1046194622E750EA410618BF52EA9B
:4037800043067FF4C5AE50EA41047FF40DAF52EA43057FF4EBAE12E74FF0FF3C06E000BF4FF0010C02E000BF4FF0010C4DF804CD4FEA410C7FEA6C5C4FEA430C18BF7FEAB6
:4037C0006C5C1BD001B050EA410C0CBF52EA430C91EA030F02BF90EA020F0020704710F1000F91EA030F58BF994208BF90422CBFD8176FEAE37040F0010070474FEA410CBC
:403800007FEA6C5C02D150EA013C07D14FEA430C7FEA6C5CD6D152EA033CD3D05DF8040B704700BF8446104662468C461946634600E000BF01B5FFF7B7FF002848BF10F10A
:40384000000F01BD4DF808EDFFF7F4FF0CBF012000205DF808FB00BF4DF808EDFFF7EAFF34BF012000205DF808FB00BF4DF808EDFFF7E0FF94BF012000205DF808FB00BF17
:403880004DF808EDFFF7CEFF94BF012000205DF808FB00BF4DF808EDFFF7C4FF34BF012000205DF808FB00BF4FEA410212F5001215D211D56FF47873B3EB625212D94FEAFC
:4038C000C12343F0004343EA505311F0004F23FA02F018BF404270474FF00000704750EA013005D111F0004008BF6FF0004070474FF00000704700BF4FEA4102B2F1E043A3
:4039000024BFB3F5001CDCF1FE5C0DD901F0004C4FEAC0024CEA5070B2F1004F40EB830008BF20F00100704711F0804F21D113F13872BCBF01F00040704741F480114FEAA4
:403940005252C2F11802C2F1200C10FA0CF320FA02F018BF40F001004FEAC1234FEAD32303FA0CFC40EA0C0023FA02F34FEA4303CCE77FEA625307D150EA01331EBF4FF08F
:40398000FE4040F44000704701F0004040F0FE4040F40000704700BF80F0004002E000BF81F0004142001FBF5FEA410392EA030F7FEA226C7FEA236C6AD04FEA1262D2EB84
:4039C0001363C1BFD218414048404140B8BF5B42192B88BF704710F0004F40F4000020F07F4018BF404211F0004F41F4000121F07F4118BF494292EA030F3FD0A2F1010270
:403A000041FA03FC10EB0C00C3F1200301FA03F100F0004302D5494260EB4000B0F5000F13D3B0F1807F06D340084FEA310102F10102FE2A51D2B1F1004F40EBC25008BF63
:403A400020F0010040EA03007047490040EB000010F4000FA2F10102EDD1B0FA80FCACF1080CB2EB0C0200FA0CF0AABF00EBC25052421843BCBFD0401843704792F0000F7B
:403A800081F4000106BF80F400000132013BB5E74FEA41037FEA226C18BF7FEA236C21D092EA030F04D092F0000F08BF0846704790EA010F1CBF0020704712F07F4F04D178
:403AC000400028BF40F00040704712F100723CBF00F50000704700F0004343F0FE4040F4000070477FEA226216BF08467FEA23630146420206BF5FEA412390EA010F40F413
:403B0000800070474FF0000304E000BF10F0004348BF40425FEA000C08BF704743F0964301464FF000001CE050EA010208BF70474FF000030AE000BF50EA010208BF7047DB
:403B400011F0004302D5404261EB41015FEA010C02BF84460146002043F0B64308BFA3F18053A3F50003BCFA8CF2083AA3EBC25310DB01FA02FC634400FA02FCC2F120026C
:403B8000BCF1004F20FA02F243EB020008BF20F00100704702F1200201FA02FCC2F1200250EA4C0021FA02F243EB020008BF20EADC7070474FF0FF0C1CEAD0521EBF1CEA6B
:403BC000D15392EA0C0F93EA0C0F6FD01A4480EA010C400218BF5FEA41211ED04FF0006343EA501043EA5111A0FB01310CF00040B1F5000F3EBF490041EAD3715B0040EAF6
:403C0000010062F17F02FD2A1DD8B3F1004F40EBC25008BF20F00100704790F0000F0CF0004C08BF49024CEA502040EA51207F3AC2BFD2F1FF0340EAC250704740F4000084
:403C40004FF00003013A5DDC12F1190FDCBF00F000407047C2F10002410021FA02F1C2F1200200FA02FC5FEA310040F1000053EA4C0308BF20EADC70704792F0000F00F084
:403C8000004C02BF400010F4000F013AF9D040EA0C0093F0000F01F0004C02BF490011F4000F013BF9D041EA0C018FE70CEAD15392EA0C0F18BF93EA0C0F0AD030F0004C64
:403CC00018BF31F0004CD8D180EA010000F00040704790F0000F17BF90F0004F084691F0000F91F0004F14D092EA0C0F01D142020FD193EA0C0F03D14B0218BF084608D17B
:403D000080EA010000F0004040F0FE4040F40000704740F0FE4040F4400070474FF0FF0C1CEAD0521EBF1CEAD15392EA0C0F93EA0C0F69D0A2EB030280EA010C49024FEA88
:403D4000402037D04FF0805343EA111143EA10130CF000408B4238BF5B0042F17D024FF4000C8B4224BF5B1A40EA0C00B3EB510F24BFA3EB510340EA5C00B3EB910F24BF0A
:403D8000A3EB910340EA9C00B3EBD10F24BFA3EBD10340EADC001B0118BF5FEA1C1CE0D1FD2A3FF650AF8B4240EBC25008BF20F0010070470CF0004C4CEA50207F32C2BF19
:403DC000D2F1FF0340EAC250704740F400004FF00003013A37E792F0000F00F0004C02BF400010F4000F013AF9D040EA0C0093F0000F01F0004C02BF490011F4000F013BF8
:403E0000F9D041EA0C0195E70CEAD15392EA0C0F08D142027FF47DAF93EA0C0F7FF470AF084676E793EA0C0F04D14B023FF44CAF08466EE730F0004C18BF31F0004CCAD1ED
:403E400030F000427FF45CAF31F000437FF43CAF5FE700BF42000ED2B2F1FE4F0BD34FF09E03B3EB126209D44FEA002343F0004323FA02F070474FF00000704712F1610FDB
:403E800001D1420202D14FF0FF3070474FF00000704700BF014B1868704700BF4881FF1F0E4B70B51E460E4C0025E41AA410A54204D056F8253098470135F8E700F04EF97A
:403EC000084B094C1E46E41AA4100025A54204D056F8253098470135F8E770BD6841000068410000684100007041000010B5431E0A44914204D011F8014B03F8014FF8E71A
:403F000010BD03460244934202D003F8011BFAE770470000000000005541525420657272000000004A554D500D0A00004455434B0D0A00001D510040005B0040FD510040C2
:403F4000005B004020020220035B00402443004040000000004F0040180040510040300000000140001000140140000800400140000A004C014000020050014020000000BC
:403F8000FB21F93FFB2109407CD91240FB2119407A6A1F407CD92240BBFD2540FB2129403A462C407A6A2F405C4731407CD932409C6B3440BBFD3540DB8F3740FB21394058
:403FC0001BB43A403A463C405AD83D407A6A3F404C7E40405C4741406C1042407CD942408CA243409C6B4440AC344540BBFD4540CBC64640DB8F4740EB584840FB214940D1
:4040000083F9A200444E6E00FC291500D1572700DD34F50062DBC0003C999500419043006351FE00BBDEAB00B761C5003A6E2400D24D42004906E00009EA2E001C92D10089
:40404000EB1DFE0029B11C00E83EA700F535820044BB2E009CE98400B4267000417E5F00D6913900538339009CF439008B5F840028F9BD00F81F3B00DEFF97000F980500F7
:40408000112FEF000A5A8B006D1F6D00CF7E360009CB2700464FB7009E663F002DEA5F00BA277500E5EBC7003D7BF100F739070092528A00FB6BEA001FB15F00085D8D00BA
:4040C000300356007BFC4600F0AB6B0020BCCF0036F49A00E3A91D005E619100081BE60085996500A0145F008D40680080D8FF0027734D0006063100CA561500C9A87300A4
:404100007BE260006B8CC0000200000003000000040000000600000000000040FB21F93F000000002D44743E000000809846F83C0000006051CC783B00000080831BF0393C
:404140000000004020257A38000000802282E336000000001DF3693543000000F8B500BFF8BC08BC9E4670474D00000079080000F8B500BFF8BC08BC9E46704729000000E5
:4041800090410000C880FF1F88000000900300000000000080BB7A01FF0000000000E02EC05D00001800000000366E01FF0000000000000000000000000000000000000011
:4041C0000000000000000000000000000000000058410000000000000000000000000000000000000000000000000000000000000000000000000000000000000000000026
:4042000000000000000000000000000000000000E880FF1F0000000000000000000000000000000000000000000000000000000000000000000000000000000000000000F8
:40424000000000000000000000000000000000000000000000000000000000000000000000000000000000000000000000000000000000000000000000000000000000003E
:4042800000000000000000000000000000000000000000000000000000000000000000000000000000000000000000000000000000000000000000000000000000000000FE
:4042C00000000000000000000000000000000000000000000000000000000000000000000000000000000000000000000000000000000000000000000000000000000000BE
:40430000000000000000000000000000000000000000000000000000000000000000000000000000000000000000000000000000000000000000000000000000000000007D
:020000040003F7
:0200000480007A
:40000000044F00400452004003640040016500400105014004090140660A0140490B01406D0C0140370D014032140140111501404216014021170140011B0140034001404F
:40004000024101400A420140024401400345014006460140034701400648014006490140044C0140024D0140055001400151014001800A4B0D80164B080414807804790C79
:400080008A728B388D0F870DE20C8A40A240B540B612001F01E702200318041C05180623080309080A400C330E0C0F041180143F15FF180419441D101E232008211C23E136
:4000C000240125C02680280C293C2BC22C022E802FE330103138320F34C0351F362C37C03A883B283E1156025713580459045B045C335D305F018204840887018A048C01D2
:400100008D01920295019E02A301A401A801B008B204B402B501B601B928BE15BF04C045C103C201C406C5C0C60EC806C9FFCAFFCBFFCC62CDA0CEF0CF41D00CD418D6048A
:40014000D804D904DA04DB04DC33DD33DF01E640E702E910EA30EB10ED10EE10EF12000401600214038105040640070609080A070F4210A012021310171819011A201B900E
:400180001D401E891F0420042108220823C12504270429402A142B802F8030A0310832023608382839803A023C043D40450847814E014F22564059015F01678A69146B1AC3
:4001C000709472047310810487408E048F01918095149924A020A202B020C0FFC297C46FCA8FCC4FCE5FD0D0D230D681D8B0E00401800220031306030B080C100EAC130CCE
:400200001410152C164017431C0C1E712009217122D0230E24DC262228142D712F06321F3330350F36E037C039883A803B203F044002464049FF4A074BFF4C404D204EF0BD
:400240004F055008580459045A045C335D035F01604061A8624063208013820484E08506882089068AC08C808E2090139104920C93029403961498E099029B0C9D01A215A0
:40028000A440A620A80AAA14AE08B00FB106B301B4E0B610B708BA02BE40BF04C054C101C5E0C6B0C70CC81AC9FFCAFFCBFFCEF0CF44D00CD401D804D904DA04DB04DC33A6
:4002C000DD33DF01E6C0EA40EB020120021203800584068009080A500B080D800F201021112013011520170A19601A401D841F80214022062510272A2D802E402F80302048
:4003000032823401370A39143A103B083F2142804380472049814A804F015118571059415A1866806701C0BFC2AEC47FCA90CCCDCEA6D029D208D60F4030410249FF4AFFCA
:400340004BFF4DA04F0450185A045F01604062C06440654066C068C06AC06CC06EC096029A02AE01B201B402C030C102C501C620C809C9FFCAFFCBFFCDAFCE0FCF04D01805
:40038000D280D804DA04DB04DF01E040E2C0E440E540E6C0E8C0EAC0ECC0EEC00D080F0817801C181D084010412045284F08552077808404AF10C260C480D066EC10160122
:4003C0001A0134014060410249FF4AFF4BFF4DA04F04501858045A045C015D015F01604062C06440654066C068C06AC06CC06EC0860292019B01A604AA02AD01B002B40173
:40040000B604B701BE01C020C106C5D1C702C813C9FFCAFFCBFFCDAFCE0FCF04D018D280D405D804D904DA04DB04DC11DD11DF01E040E2C0E440E540E6C0E8C0EAC0ECC030
:40044000EEC0000409020C200F2010201204184419401B101F1022402940302040044604482849014F2050085204580859015A8071028048C004C268C406CA08CC04D02472
:40048000D224D60BEC1032403580CC3096809D801A805B085F088308858096809D80C610D6C0E2307E08DE010D10A608C20145088208A608B110D001EE048B08A508E0044E
:4004C000248058105F40C880D480D62087409740AC10B440E640EE405708A308A508D402B508EC0800080C080E0810031A03000E00636300000000003C000000000000006D
:400500000100000D0C000C00220000000400000F0F00040020000000807F7F0000000000E00000E01A000000000000000800180100000000000000000000000000000000B4
:40054000000000000000000000000000000000000000000000000000000000000000000000000000000000000000000000000000000000000000000000000000000000007B
:40058000000000000000000000000000000000000000000000000000000000000000000000000000000000000000000000000000000000000000000000000000000000003B
:4005C00000000000000000000000000000000000000000000000000000000000000000000000000000000000000000000000000000000000000000000000000000000000FB
:4006000000000000000000000000000000000000000000000000000000000000000000000000000000000000000000000000000000000000000000000000000000000000BA
:0200000490006A
:0400000000004005B7
:0200000490105A
:04000000BC90ACAF55
:0200000490303A
:02000000D851D5
:0200000490402A
:4000000000000000000000000000000000000000000000000000000000000000000000000000000000000000000000000000000000000000000000000000000000000000C0
:400040000000000000000000000000000000000000000000000000000000000000000000000000000000000000000000000000000000000000000000000000000000000080
:400080000000000000000000000000000000000000000000000000000000000000000000000000000000000000000000000000000000000000000000000000000000000040
:4000C0000000000000000000000000000000000000000000000000000000000000000000000000000000000000000000000000000000000000000000000000000000000000
:0200000490501A
:0C00000000012E16106900012E30E8BA35
:00000001FF