:4000000000800020110000001D0600001D06000008B5044B1A6803F53F5302331A6000F005FB00BFFA46004010B5054C237833B9044B13B10448AFF300800123237010BD31
:400040004881FF1F0000000070150000084B10B51BB108490848AFF300800848036803B910BD074B002BFBD0BDE81040184700BF000000004C81FF1F70150000C880FF1FF8
:400080000000000008B503780BB10023037040F2A46001F09BF8C82001F038F840F6B83001F094F80021084600F06EFE064800F003FE012000F02CFB012000F035FB4FF492
:4000C000FA7001F023F808BD7415000008B540F2A46001F0EFF8C82001F018F840F6B83001F0E8F80021084600F04EFE064800F0E3FD012000F024FB012000F02DFBC8207F
:4001000001F004F808BD00BF7C15000010B5044600F07EF820707A280ED0012000F0F8FA2378322B03D10020FFF7ACFF10BD382B07D1FFF7CBFF10BD7A2802D1012000F08D
:40014000F3FA10BD10B582B062B601248DF807407A238DF806304BF6803001F031F84BF6803001F0A1F800F001FE204600F0B2FD00F0D2FC00F086FE00F03EF801F078F83A
:4001800001F0EAF840F6B83001F020F840F6B83001F090F801F048F90021012000F0F4FD002000F00FFE00F09BFA20B10DF10700FFF768FF0EE000F09BFA10B1FFF786FFD5
:4001C00008E000F09DFA28B1012000F083FD01238DF807300DF10600FFF798FF002000F097FA002000F0A0FA002000F0A9FA002000F0B2FAD0E700BF08B5012001F042F97B
:40020000012001F04BF9012001F054F908BD00BF08B5002001F036F9052000F077FF01F011F920B9012001F02DF9232008BD01F011F920B9012001F025F9392008BD01F0D6
:4002400011F920B9012001F01DF9362008BD01F011F920B9012001F015F9332008BD012001F010F9002001F019F9052000F04EFF01F0E8F820B9012001F010F9302008BDD2
:4002800001F0E8F820B9012001F008F9382008BD01F0E8F820B9012001F000F9352008BD01F0E8F820B9012001F0F8F8322008BD012001F0F3F8002001F0FCF8052000F0BB
:4002C00025FF01F0BFF820B9012001F0F3F82A2008BD01F0BFF820B9012001F0EBF8372008BD01F0BFF820B9012001F0E3F8342008BD01F0BFF820B9012001F0DBF831207D
:4003000008BD012001F0D6F87A2008BDFEE700BFF0B40022174611E050F82760F3B226F0FF0608E001EB420511F812406D78A5550132013BDBB2002BF4D101371D2FEBD9E9
:40034000F0BC70470D4B1B78DBB203F007010C4A11701B09013213708023A2F2627213702021F0321170022102F683021170803213704422034B1A70704700BFCF01004961
:400380006E5800407658004008B50A46002101F0E6F808BD08B501F0D7F808BD38B50922344B1A80182334490B70002402310C8050200231087002310A80304A13704FF4C6
:4003C0009C71023211800232137004222C492D48FFF7E0FF02222C4B1A7008224FF040231A70032103F500731970284B1B78DBB227490B70274B1A8041F25122023B1A80F5
:4004000019250CE0244B1B7803F0010343EA440404F003044FF4F07001F05AF8013D0DB1032CEFD115B90320FFF770FF1B4B4FF480721A8007221A70002219490A704820B4
:40044000023108701A700222033B1A7004220A331A70144A137843F00F031370013A137843F001031370013A137843F08003137038BD00BF80400040824000408A4000407E
:40048000D4050048004100400043004008010049A146004022420040254200400440004006400040A2430040012807D8044B53F820201844017A13780B431370704700BF99
:4004C00084150000012808D8044B53F820201844017A137823EA0103137070478415000038B572B6394A137843F00403137000240BE0374863001A19510001440A46098ABD
:40050000D068FFF741FF0134E4B2072CF1D900240BE02F49A3001819420088188022016CC06BFFF737FF0134E4B2002CF1D029494FF09040FFF7ECFE0A25274B1D70274A2A
:40054000137843F0020313701032137843F002031370234C237843F040032370A2F58632513A137843F0100313702A461D491E48FFF710FF08221D491D48FFF70BFF08220C
:400580001C491D48FFF706FF2A461C491C48FFF701FF08221B491C48FFF7FCFE1B4A137843F0080313701A4D61232B70FFF7F6FE81232B700122174B1A70FFF7C3FE0E220F
:4005C00021461548FFF7E6FE38BD00BFE846004084150000780000488358004003500140A0430040A405004800510040B0050048C2510040B8050048F2510040C0050048A9
:4006000010510040CC05004822510040224300400048004004000840B043004008B500F067FF03680C2B00D1FEE7FEE708B5104E104D16E029686B68AC68002204E051F81C
:40064000040B43F8040B0432A242F8D1E868002203E0002143F8041B04328242F9D11035013E002EE6D100F049FFFFF76BFDFEE701000000F015000008B5104A104B1A60D4
:40068000104A136843F40073136000230AE0032B03D80D4A52F8231000E00C490C4A42F8231001332F2BF2D90A4B1A780A4B1A70074A0A4B1A60FFF713FF08BD0004FA0557
:4006C0000CED00E014ED00E0000000001D0600000080FF1FBC760040C080FF1F08ED00E0024B1878C0F34010704700BFC1510040024B1878C0F30010704700BFC1510040CA
:40070000024B1878C0F3C000704700BFC1510040044A137803F0FE0300F0010018431070704700BF00510040044A137803F0FD03400000F0020018431070704700510040E0
:40074000044A137803F0DF03400100F0200018431070704700510040044A137803F0BF03800100F040001843107070470051004010B59DF80840012C51D1013809282ED894
:40078000DFE800F0052D2D052D2D0F192D230F2B03D92548007840B222E02448007840B21EE00F2B03D92248007840B218E02148007840B214E00F2B03D91F48007840B2F9
:4007C0000EE01E48007840B20AE00F2B03D91C48007840B204E01B48007840B200E0002001EB401101FB02F1C90B8AB20D2B0BD8C3F10E0289B211418AB2611E124800EB14
:40080000810101338B7005E0631E0F4901EB83030F219970013C0C4B23F8242010BD002000F072FC10BD00BF180100491C010049190100491D0100491A0100491E01004976
:400840001B0100491F0100496481FF1FF8B5074600F046FE06460D4D2B7843F003032B700B4C237843F0030323700A4B1F70032000F062FC2B7803F0FC032B70237803F08B
:40088000FC032370304600F02FFEF8BDF8460040F94600409258004038B50022304B1A7101285CD138222F4B1A70042202331A70062201331A70002401331C7001331C70FF
:4008C0003F2201331A7002331C7001331C7001331C7001250A331D70502203F527631A700A2201331A702C2201331A7001331C70442203331A70482201331A7001331D7065
:4009000002331D70112201331A70192201331A70972201331A705220FFF798FF5822124B1A7001331C700223104A1370013213700F4B1C7001331C70204600F0C1FA43F2D0
:4009400033320C4B1A602946052000F0DDFA2946252000F05FFB08491D2000F0F7FB38BD6481FF1F004E0040945800409A5800409C5800407881FF1F410B0000F0B583B025
:40098000284D01272F70284E00247471102000F0A9FA102000F02CFB07211D2000F0EAFB0422224B1A7001331C7007331C70204A137843F0180313701E4B1C7003F2F523CD
:4009C0001C7001331C700A22A3F209331A7001331C7002331C705B2205331A705E2201331A7004331C701422A3F68C231A70009710234FF4004248F6F0510220FFF7B8FEBF
:400A00002B78013B06EB83039A780B4B1A702B78013B36F82320094B1A802878FFF73CFF03B0F0BDCC80FF1F6481FF1F96580040075B0040935800400E4E00400C4E004061
:400A400070B500F04DFD06462A4B1B782A4B1A7842F001021A701A7842F010021A7010331A7842F001021A701A7842F010021A70224D2B7843F002032B70214C237843F089
:400A8000020323701F4A137843F003031370032000F052FB2B7803F0FD032B70237803F0FD032370184A137843F0060313707A22164B1A70164A137843F001031370103222
:400AC000137843F0010313700F3A137843F0020313701032137843F0020313704FF000530C4A1360A2F5C0721360304600F0FCFC70BD00BFCC80FF1FAA430040F8460040A4
:400B0000F9460040915800407758004082580040A143004080E200E008B5084B9B794BB9064BDB7913F0FF0F01D1FFF727FF0122024B9A71FFF784FF08BD00BF6481FF1F37
:400B4000704700BF10B50B4C237803F09F032370237803F0F00323702378184340F010002070012000F0E8FA237803F0EF03237010BD00BF2051004038B505460E4C2378D6
:400B800043F020032370237803F0BF032370002000F0D2FA237803F0F003237023781D4345F010052570012000F0C6FA237803F0EF03237038BD00BF2051004070B5354BB1
:400BC0001A7802F08002D2B21A7033490A7802F0F00242F00F020A7001310A7802F0F0020A7001310A7802F0F0020A701A7802F0DF021A701A7842F040021A704FF4CA761C
:400C0000002000F099FA234D2B7843F010032B70012000F091FA214B1C78E4B22B7803F0EF032B70002000F087FA04F00804E4B22B7843F010032B70012000F07DFA2B78F2
:400C400003F0EF032B7014B90A2000F075FA013E0CB1002ED4D10F4A137803F0BF031370137803F08003DBB213700232137803F0F00313700132137803F0F00343F00F0391
:400C800013700132137803F0F00343F00F03137070BD00BF20510040225100402151004010B50446FFF78AFF2009FFF765FF04F00F00FFF761FF10BD38B505460078012437
:400CC00004E0FFF7EDFF285D0134E4B20028F8D138BD00BF10B50446FFF770FF2009FFF731FF04F00F00FFF72DFF10BD08B5282000F00CFA0320FFF725FF052000F006FA37
:400D00000320FFF71FFF0F2000F000FA0320FFF719FF012000F0FAF90220FFF713FF052000F0F4F90620FFF7D5FF0E20FFF7D2FF2C20FFF7CFFF0820FFF7CCFF0120FFF70D
:400D4000C9FF0C20FFF7C6FF0320FFF7C3FF052000F0DCF908BD00BF08B50C20FFF7BAFF0122014B1A7008BD7081FF1F08B5054B5B7823B9FFF7BAFF0122024B5A70FFF77B
:400D8000EBFF08BD7081FF1F08B5032819D8DFE800F002070D1381F08000FFF79BFF08BDA1F14000C0B2FFF795FF08BDA1F16C00C0B2FFF78FFF08BDA1F12C00C0B2FFF704
:400DC00089FF08BD10B584B000238DF80E30092211E0144BA3FB0013DB081C4603EB83035900431ADBB2303304A9114401F80C3C2046013AD2B20928EBD80A4BA3FB0013DA
:400E0000DB0803EB83035900431ADBB2303304A9114401F80C3C01AB9818FFF74DFF04B010BD00BFCDCCCCCC7222074B1A702022033B1A7006225F3B1A70472210331A7067
:400E400000224D331A7070478F64004010B500F047FB04460A4A137843F020031370033A137843F010031370023A137843F01003137000F03BF9204600F036FB10BD00BF0B
:400E80009F64004008B5054B1B7823B9FFF7CCFF0122024B1A70FFF7D9FF08BD7281FF1F10B5002404E02046FFF70CFB0134E4B2012CF8D9FF22014B1A7010BDCD80FF1FEC
:400EC00010B50446FFF7ECFF2046FFF7EDFA014B1C7010BDCD80FF1F014B188880B2704784400040034B1A7800F0F80010431870704700BF86400040024B187800F00700E3
:400F0000704700BF8640004070B504460D46FFF7F3FF0646FFF7E0FFA04257D02C4B1B7803F00203DAB296B900B184B938B9294B1C80294A137803F0BF03137070BD264AC2
:400F4000137843F040031370224B1C8070BD22B3002322490B7002260F310E7004310B700C390B7803F07F030B701B4B1B7813F0080F00D08CB91A4B18800721013B197079
:400F8000164B1B7813F0010FFAD111490B7803F0FD030B700021114B19700D4B1B7813F0020F0DD00E4B1C800DB1032200E001220A4B1A70094B1B7813F0010FFAD170BD86
:400FC000044B1C8002490B7813430B7070BD00BFA243004084400040864000400140004002400040014B188880B2704700410040034B1A7800F0F80010431870704700BFDA
:4010000002410040024B187800F00700704700BF0241004070B505460E46FFF7F3FF0446FFF7E0FFA84256D02B4B1B7803F0010294B900B185B938B9284B1D80284A13784C
:4010400003F0BF03137070BD254A137843F040031370224B1D8070BD22B3002321490B70012413310C7004390B7008390B7803F07F030B701A4B1B7813F0080F00D08DB98B
:40108000194B18800721013B1970164B1B7813F0010FFAD110490B7803F0FE030B700021104B19700C4B1B7813F0010F0DD00E4B1D800EB1032200E001220A4B1A70094B3B
:4010C0001B7813F0010FFAD170BD044B1D8002490B7813430B7070BDA143004000410040024100400140004002400040054A137843F0080313701032137843F00803137046
:40110000704700BFA243004001BE704710B5044605E0084B186800F0DBF9A4F50044B4F5004FF6D8034B586800FB04F000F0D0F910BD00BFD080FF1F08B5034B1B7A00FB25
:4011400003F000F0C5F908BDD080FF1F70B504460E46074B1D681F2802D90020FFF7D4FF04F01F04103455F8240045F8246070BD08ED00E038B504460D46072902D90020B2
:40118000FFF7C2FF1F2C02D90020FFF7BDFF04F01F0000F1604000F564406D01EDB2057038BD00BF024A137843F080031370704777650040014B1880704700BF0C6A00401A
:4011C000014B1880704700BF8C6A0040014B1880704700BF4C6A0040014B1870704700BF87650040014B1878704700BF67650040014B188880B27047AC6A004008B501E072
:40120000FFF7F6FFFFF7EEFF10F0100FF8D108BD10B5154A137803F0C00343F0090313701F32137843F001031370104C237843F0010323704BF68030FFF7BCFF4BF6803022
:40124000FFF7BEFF45F6C050FFF7C0FF0020FFF7C3FF00F045F9237843F01003237000F043F9FFF7CBFF10BD776500409765004008B5054B1B7823B9FFF7CAFF0122024B85
:401280001A70FFF78FFF08BD7481FF1F024A137843F080031370704775650040014B1880704700BF086A0040014B1880704700BF886A0040014B1880704700BF486A004083
:4012C000014B1870704700BF85650040014B1878704700BF65650040014B188880B27047A86A004008B501E0FFF7F6FFFFF7EEFF10F0100FF8D108BD10B5154A137803F03C
:40130000C00343F0090313701F32137843F001031370104C237843F0010323704BF68030FFF7BCFF4BF68030FFF7BEFF45F6C050FFF7C0FF0020FFF7C3FF00F0D1F823785F
:4013400043F01003237000F0CFF8FFF7CBFF10BD756500409565004008B5054B1B7823B9FFF7CAFF0122024B1A70FFF78FFF08BD7581FF1F084A137843F001031370103291
:40138000137843F00103137002F64D32137843F001031370704700BFA3430040014B1870704700BF034F0040014B1880704700BF044F0040014B1880704700BF064F0040D8
:4013C00008B5164A137803F0010313700232137803F0FC031370124B1A7802F0CF021A701A7842F030021A701A7802F0F0021A701A7842F00F021A700A4A137843F0010366
:40140000137045F6BF50FFF7CFFF45F6BF50FFF7D1FF0020FFF7C2FF08BD00BF004F00400B4F0040014F004008B5054B1B7823B9FFF7C6FF0122024B1A70FFF79BFF08BD71
:401440007681FF1F024B1878C0F38000704700BF01510040024B1878C0F3C000704700BF01510040024B1878C0F30010704700BF01510040024B1878C0F30010704700BF29
:4014800011510040044A137803F0DF03400100F0200018431070704710510040044A137803F0BF03800100F0400018431070704710510040044A137803F07F03C001C0B265
:4014C00018431070704700BF10510040000000000230800803D000BF01380046FCD17047EFF3108072B6704780F31088704700BF014B1868704700BF4081FF1F0E4B70B53A
:401500001E460E4C0025E41AA410A54204D056F8253098470135F8E700F058F8084B094C1E46E41AA4100025A54204D056F8253098470135F8E770BDD8150000D815000048
:40154000D8150000E015000010B5431E0A44914204D011F8014B03F8014FF8E710BD03460244934202D003F8011BFAE770470000000000004A756D70000000004475636B1A
:4015800000000000035B00402443004040000000004F00400C0030510040400000000140800E000F0140000100140140000800400140000A004C01400002005001402000C2
:4015C000800E01402405004880004300F8B500BFF8BC08BC9E4670474D00000079060000F8B500BFF8BC08BC9E4670472900000000160000C880FF1F8000000038000000C1
:401600000000000001FF00000000E02EC05D00001800000000366E010000000000000000000000000000000000000000000000000000000000000000CA15000000000000E3
:401640000000000000000000000000000000000000000000000000000000000000000000000000000000000000000000000000000000000000000000E080FF1F00000000EC
:40168000000000000000000000000000000000000000000000000000000000000000000000000000000000000000000000000000000000000000000000000000000000002A
:4016C00000000000000000000000000000000000000000000000000000000000000000000000000000000000000000000000000000000000000000000000000000000000EA
:4017000000000000000000000000000000000000000000000000000000000000000000000000000000000000000000000000000000000000000000000000000000000000A9
:401740000000000000000000000000000000000000000000000000000000000000000000000000000000000000000000000000000000000000000000000000000000000069
:020000040003F7
:0200000480007A
:40000000024F00400352004003640040026500400103014002070140040901403F0A0140310B0140520C0140400D01400F0E0140310F0140401401402615014045160140AF
:4000400024170140031B01400240014003410140024401400345014005460140024701400748014008490140044C0140074D0140055001400151014001800A3609041480A4
:4000800079088A0F8C388F72850D870DE602A302B302B180B440B720EE80006C0211045C050A060207540B080D030E030F141409161019801B151C701D531E0C1F0C20105A
:4000C0002153230426202814292030603110332035C0361F370F380239203B803E013F054016410445E046EC470B481E49FF4AFF4BFF4EF04F44500C5401580459045A04F7
:400100005B045C335D335F0166C06A406B02AE01B001D804DC03DF010006018209800A20100812A01401184019801E40219022142380288029022A10319032203884392080
:400140004082418049115048521059015A085BA090049440966098019C02A001A2A0A580A804A920B001B210C00DC205C48ECA05CC0CCE0ED009D204D60F007C0281030667
:4001800004240504086009060CE70E180F0111021204141C16E21706184019061C101D0622632306240828182CFF2F013080321F34783501370638023A283B023F10541811
:4001C0005604580459045B045C335D305F01840C8506860387018B069001920E960C9B019C019E069F03A208A302A603AF05B40FB707BA20BB80C004C540C9FFCA07CBFF94
:40020000CC40CD20CEF0CF05D008D804D904DA04DC33DD03DF01E040E1A8E240E3200004041005020610070109800AA00B100C800D200E600F0412A01501176818041D14CE
:400240001E241F022002224024082742280229012D022F02326034013514374038043B103C103D033F84404049014AA05F026520674287408A048B019010930299029B283A
:400280009C019D149F40A080A121A340C0F4C2FDC4FCCA99CCFCCEF6D001D680D8B009671501170E19441B3125672D222F513307356037183F4059045C305F010514068443
:4002C00007500E220F48160217281E0A1F01201021A825012612270428012B202C282D022E8031283408371139103D143E023F4044084580468447044E024F4857405D0221
:400300005E0A6D146F2174A876027728C070C2F0C4E0CAFACCE6CEF4D0F0D210D64038803E404030410249FF4AFF4BFF4DA04F04501858045A045F01604062C0644065400A
:4003400066C068C06AC06CC06EC083038A028B029E04A602AD01AE01B004B201B302B402B701BE10C030C102C5D0C620C710C82AC9FFCAFFCBFFCDAFCE0FCF04D018D28055
:40038000D405D804D904DA04DB04DF01E040E2C0E440E540E6C0E8C0EAC0ECC0EEC004100F021620174018011A011C101D081E081F01250426402F013C103F024010412037
:4003C00045284F015520562057015E885F017740810486018C01AF10B520C040C280C4A0CA10CEA0D066D6D0E82016011A0134014060410249FF4AFF4BFF4DA04F04501834
:4004000058045A045C025D025F01604062C06440654066C068C06AC06CC06EC08602910292019B01A604AA02AD01B002B101B401B502B604BE01BF10C020C106C5D1C7029C
:40044000C813C9FFCAFFCBFFCDAFCE0FCF04D018D280D405D804D904DA04DB04DC22DD22DF01E040E2C0E440E540E6C0E8C0EAC0ECC0EEC0000409020C200F2010201204A7
:40048000184419401B101F102120238029403020330240044604482849014F2050085204580859015B8071028048A302C004C268C406CA08CC05D024D224D60BE410E8205F
:4004C000EC403220CC108620A620E6407C01DE010D109401C20144109401B110D001EE0494019C102101512058106710C840D4A0D880812087109710A520AC10B101E23027
:40050000EE405B1094019C10D4018C019401B010B710E408E804EC0200080C080E0810051A0500030F0400000D08020003080C0000000001000802000001100600071000BA
:400540000D00020000060001040200000C060000080700001008000001070E00000080000000110025040300010C0E0005FFFFFF62A0F0410C0000000000021204040404D3
:400580003333000100000000000040020010301000101012000000000000000000000000000000001C00007F63000000800000003C00000000000000000C0C000C00200012
:4005C0001400001FEF00040000000000807F7F0000000000250018010000000000000000000000000000000000000000000000000000000000000000000000000000000019
:4006000000000000000000000000000000000000000000000000000000000000000000000000000000000000000000000000000000000000000000000000000000000000BA
:40064000000000000000000000000000000000000000000000000000000000000000000000000000000000000000000000000000000000000000000000000000000000007A
:40068000000000000000000000000000000000000000000000000000000000000000000000000000000000000000000000000000000000000000000000000000000000003A
:4006C00000000000000000000000000000000000000000000000000000000000000000000000000000000000000000000000000000000000000000000000000000000000FA
:0200000490006A
:0400000000004005B7
:0200000490105A
:04000000BC90ACAF55
:0200000490303A
:020000008E3838
:0200000490402A
:4000000000000000000000000000000000000000000000000000000000000000000000000000000000000000000000000000000000000000000000000000000000000000C0
:400040000000000000000000000000000000000000000000000000000000000000000000000000000000000000000000000000000000000000000000000000000000000080
:400080000000000000000000000000000000000000000000000000000000000000000000000000000000000000000000000000000000000000000000000000000000000040
:4000C0000000000000000000000000000000000000000000000000000000000000000000000000000000000000000000000000000000000000000000000000000000000000
:0200000490501A
:0C00000000012E16106900012E1F9EA1A9
:00000001FF