:400000000080002011000000410400004104000008B5044B1A6803F53F5302331A6000F017FA00BFFA46004010B5054C237833B9044B13B10448AFF300800123237010BDDC
:400040004881FF1F00000000F4160000084B10B51BB108490848AFF300800848036803B910BD074B002BFBD0BDE81040184700BF000000004C81FF1FF4160000C880FF1FEE
:400080000000000038B500F0A9FE044610F01E0F06D00021012000F00FFE0F4800F0A0FD04F0200404F0FF059CB100F091FE0B4C207000F09BFE0021012000F0FDFD084884
:4000C00000F08EFD0021012000F0F6FD207800F095FD002DD7D138BDF81600007581FF1F0417000010B562B600F0E0FB00F0D6FD00F0AEFC00F0EEFB00F05CFE4BF6803026
:4001000000F04EFC002000F051FC144800F094FE012000F0E7FB0028FAD000F0FBFB01F0E1F80F4901F0EAF94FF07E5101F02AF80C4901F02FF901F07DFA044600210846D9
:4001400000F0BAFDA4B2204600F0D4FD204600F02DFC4FF4FA7000F0B1FFD9E78500000000FF7F4700001645FEE700BFF0B40022174611E050F82760F3B226F0FF0608E0FB
:4001800001EB420511F812406D78A5550132013BDBB2002BF4D10137192FEBD9F0BC70470A4B1B78DBB203F00701094A11701B09013213708023A2F26272137002F6F31296
:4001C00013704422034B1A70704700BFCF0100496E5800407658004008B50A46002101F080FA08BD08B501F071FA08BD38B50024324B1C80502202331A70092202331A800A
:4002000018232F4A13704FF49C71023211800232137004222B492C48FFF7E4FF02222B4B1A7008224FF040231A70032103F500731970274B1B78DBB226490B70264B1A80BB
:4002400041F25122023B1A8019250CE0234B1B7803F0010343EA440404F003044FF4F07000F07AFF013D0DB1032CEFD115B90320FFF77AFF1A4B4FF480721A8007221A7031
:40028000002218490A704820023108701A700222033B1A7004220A331A70134A137843F007031370013A137843F001031370013A137843F08003137038BD00BF80400040F0
:4002C000864000400C050048004100400043004008010049A146004022420040254200400440004006400040A2430040012807D8044B53F820201844017A13780B43137093
:40030000704700BF0C170000012808D8044B53F820201844017A137823EA0103137070470C17000038B572B6314A137843F00403137000240BE02F4863001A1951000144E7
:400340000A46098AD068FFF747FF0134E4B2052CF1D929494FF09040FFF708FF0A25274B1D70274A137843F0020313701032137843F002031370234C237843F04003237062
:40038000A2F58632513A137843F01003137008221D491E48FFF726FF08221D491D48FFF721FF08221C491D48FFF71CFF2A461C491C48FFF717FF08221B491C48FFF712FFB0
:4003C0001B4A137843F0080313701A4D61232B70FFF70CFF81232B700122174B1A70FFF7DFFE0E2221461548FFF7FCFE38BD00BFE84600400C1700006800004883580040B0
:4004000003500140A0430040E004004802510040E8040048C2510040F0040048F2510040F8040048105100400405004822510040224300400048004004000840B04300406B
:4004400008B501F017F903680C2B00D1FEE7FEE708B5104E104D16E029686B68AC68002204E051F8040B43F8040B0432A242F8D1E868002203E0002143F8041B0432824246
:40048000F9D11035013E002EE6D101F0F9F8FFF729FEFEE7010000006417000008B5104A104B1A60104A136843F40073136000230AE0032B03D80D4A52F8231000E00C49AC
:4004C0000C4A42F8231001332F2BF2D90A4B1A780A4B1A70074A0A4B1A60FFF723FF08BD0004FA050CED00E014ED00E000000000410400000080FF1FBC760040C080FF1FAD
:4005000008ED00E010B59DF80840012C51D1013809282ED8DFE800F0052D2D052D2D0F192D230F2B03D92548007840B222E02448007840B21EE00F2B03D92248007840B2EB
:4005400018E02148007840B214E00F2B03D91F48007840B20EE01E48007840B20AE00F2B03D91C48007840B204E01B48007840B200E0002001EB401101FB02F1C90B8AB25C
:400580000D2B0BD8C3F10E0289B211418AB2611E124800EB810101338B7005E0631E0F4901EB83030F219970013C0C4B23F8242010BD002000F080FD10BD00BF180100497A
:4005C0001C010049190100491D0100491A0100491E0100491B0100491F0100496481FF1FF8B5074600F0C0FD06460D4D2B7843F003032B700B4C237843F0030323700A4B57
:400600001F70032000F070FD2B7803F0FC032B70237803F0FC032370304600F0A9FDF8BDF8460040F94600409258004038B50022304B1A7101285CD138222F4B1A70042284
:4006400002331A70062201331A70002401331C7001331C703F2201331A7002331C7001331C7001331C7001250A331D70502203F527631A700A2201331A702C2201331A706D
:4006800001331C70442203331A70482201331A7001331D7002331D70112201331A70192201331A70972201331A705220FFF798FF5822124B1A7001331C700223104A137026
:4006C000013213700F4B1C7001331C70204600F0D1FB43F233320C4B1A602946052000F0EDFB2946252000F06DFC08491D2000F005FD38BD6481FF1F004E00409458004066
:400700009A5800409C5800407881FF1F81090000F0B583B0284D01272F70284E00247471102000F0B9FB102000F03AFC07211D2000F0F8FC0422224B1A7001331C70073395
:400740001C70204A137843F0180313701E4B1C7003F2F5231C7001331C700A22A3F209331A7001331C7002331C705B2205331A705E2201331A7004331C701422A3F68C2313
:400780001A70009710234FF4004248F6F0510220FFF7B8FE2B78013B06EB83039A780B4B1A702B78013B36F82320094B1A802878FFF73CFF03B0F0BDCC80FF1F6481FF1FEF
:4007C00096580040075B0040935800400E4E00400C4E004070B500F0C7FC06462A4B1B782A4B1A7842F001021A701A7842F010021A7010331A7842F001021A701A7842F01E
:4008000010021A70224D2B7843F002032B70214C237843F0020323701F4A137843F003031370032000F060FC2B7803F0FD032B70237803F0FD032370184A137843F00603CA
:4008400013707A22164B1A70164A137843F0010313701032137843F0010313700F3A137843F0010313701032137843F0010313704FF000530C4A1360A2F5C0721360304620
:4008800000F076FC70BD00BFCC80FF1FAA430040F8460040F9460040915800407758004082580040A143004080E200E008B5084B9B794BB9064BDB7913F0FF0F01D1FFF7F8
:4008C00027FF0122024B9A71FFF784FF08BD00BF6481FF1F024A137843F0010313707047004E0040094B1B7913F0FF0F03D0074B5B79DBB203E0064B1B7803F00103012B18
:4009000001D00028EED01846704700BF6481FF1F014E0040154B1B7803F00303012B07D8134B1888023B1B889BB243EA004013E0022B0AD10E4B1888023B1B7843EA0043D7
:400940000C4A107843EA002006E00B4B188883B2074A108843EA0040084B1B7913F0FF0F02D00022054B5A71704700BF144E0040124E0040114E0040104E00406481FF1FE6
:40098000704700BF024A137843F080031370704777650040014B1880704700BF0C6A0040014B1880704700BF8C6A0040014B1880704700BF4C6A0040014B1870704700BFA4
:4009C00087650040014B1878704700BF67650040014B188880B27047AC6A004008B501E0FFF7F6FFFFF7EEFF10F0100FF8D108BD10B5154A137803F0C00343F00903137002
:400A00001F32137843F001031370104C237843F0010323704BF68030FFF7BCFF4BF68030FFF7BEFF45F6C050FFF7C0FF0020FFF7C3FF00F099FB237843F01003237000F059
:400A400097FBFFF7CBFF10BD776500409765004008B5054B1B7823B9FFF7CAFF0122024B1A70FFF78FFF08BD7081FF1F10B50B4C237803F09F032370237803F0F00323707F
:400A80002378184340F010002070012000F02CFB237803F0EF03237010BD00BF2051004038B505460E4C237843F020032370237803F0BF032370002000F016FB237803F040
:400AC000F003237023781D4345F010052570012000F00AFB237803F0EF03237038BD00BF2051004070B5354B1A7802F08002D2B21A7033490A7802F0F00242F00F020A70B0
:400B000001310A7802F0F0020A7001310A7802F0F0020A701A7802F0DF021A701A7842F040021A704FF4CA76002000F0DDFA234D2B7843F010032B70012000F0D5FA214B68
:400B40001C78E4B22B7803F0EF032B70002000F0CBFA04F00804E4B22B7843F010032B70012000F0C1FA2B7803F0EF032B7014B90A2000F0B9FA013E0CB1002ED4D10F4A88
:400B8000137803F0BF031370137803F08003DBB213700232137803F0F00313700132137803F0F00343F00F0313700132137803F0F00343F00F03137070BD00BF20510040C4
:400BC000225100402151004010B50446FFF78AFF2009FFF765FF04F00F00FFF761FF10BD38B505460078012404E0FFF7EDFF285D0134E4B20028F8D138BD00BF08B5FFF716
:400C0000E3FF08BD10B50446FFF76CFF2009FFF72DFF04F00F00FFF729FF10BD08B5282000F04CFA0320FFF721FF052000F046FA0320FFF71BFF0F2000F040FA0320FFF7F6
:400C400015FF012000F03AFA0220FFF70FFF052000F034FA0620FFF7D5FF0E20FFF7D2FF2C20FFF7CFFF0820FFF7CCFF0120FFF7C9FF0C20FFF7C6FF0320FFF7C3FF05200E
:400C800000F01CFA08BD00BF08B50C20FFF7BAFF0122014B1A7008BD7181FF1F08B5054B5B7823B9FFF7BAFF0122024B5A70FFF7EBFF08BD7181FF1F08B5032819D8DFE84A
:400CC00000F002070D1381F08000FFF79BFF08BDA1F14000C0B2FFF795FF08BDA1F16C00C0B2FFF78FFF08BDA1F12C00C0B2FFF789FF08BD10B584B000238DF80E300922CC
:400D000011E0144BA3FB0013DB081C4603EB83035900431ADBB2303304A9114401F80C3C2046013AD2B20928EBD80A4BA3FB0013DB0803EB83035900431ADBB2303304A947
:400D4000114401F80C3C01AB9818FFF749FF04B010BD00BFCDCCCCCC7222074B1A70202202331A700622603B1A70472210331A70002251331A7070478B64004010B500F013
:400D8000F3F904460A4A137843F0200313700232137843F0100313700132137843F01003137000F07BF9204600F0E2F910BD00BF9B64004008B5054B1B7823B9FFF7CCFF99
:400DC0000122024B1A70FFF7D9FF08BD7381FF1F014B1878704700BF4A640040024B187800F07F00704700BF6D640040034B1B7813F0040FFAD1024B187070476E640040E1
:400E00004E640040014B1B681864704708ED00E04001C0B2014B1870704700BF00E400E00122014B1A60704700E100E00122014B1A60704780E100E010B50446FFF7F6FFEC
:400E40002046FFF7DFFF0720FFF7E2FFFFF7E8FF10BD00BF10B5002404E02046FFF754FA0134E4B2012CF8D9FF22014B1A7010BDCD80FF1F10B50446FFF7ECFF2046FFF716
:400E800035FA014B1C7010BDCD80FF1F014B188880B2704780400040034B1A7800F0F80010431870704700BF82400040024B187800F00700704700BF8240004070B5054647
:400EC0000E46FFF7F3FF0446FFF7E0FFA84256D02B4B1B7803F0010294B900B185B938B9284B1D80284A137803F0BF03137070BD254A137843F040031370224B1D8070BDBF
:400F000022B3002321490B7001240F310C7004310B700C390B7803F07F030B701A4B1B7813F0080F00D08DB9194B18800721013B1970164B1B7813F0010FFAD110490B78CC
:400F400003F0FE030B700021104B19700C4B1B7813F0010F0DD00E4B1D800EB1032200E001220A4B1A70094B1B7813F0010FFAD170BD044B1D8002490B7813430B7070BDBD
:400F8000A243004080400040824000400140004002400040014B188880B2704700410040034B1A7800F0F80010431870704700BF02410040024B187800F00700704700BFCB
:400FC0000241004070B505460E46FFF7F3FF0446FFF7E0FFA84256D02B4B1B7803F0010294B900B185B938B9284B1D80284A137803F0BF03137070BD254A137843F0400385
:401000001370224B1D8070BD22B3002321490B70012413310C7004390B7008390B7803F07F030B701A4B1B7813F0080F00D08DB9194B18800721013B1970164B1B7813F0C0
:40104000010FFAD110490B7803F0FE030B700021104B19700C4B1B7813F0010F0DD00E4B1D800EB1032200E001220A4B1A70094B1B7813F0010FFAD170BD044B1D80024986
:401080000B7813430B7070BDA143004000410040024100400140004002400040054A137843F0040313701032137843F004031370704700BFA243004001BE704710B5044643
:4010C00005E0084B186800F047F8A4F50044B4F5004FF6D8034B586800FB04F000F03CF810BD00BFD080FF1F08B5034B1B7A00FB03F000F031F808BDD080FF1F70B5044602
:401100000E46074B1D681F2802D90020FFF7D4FF04F01F04103455F8240045F8246070BD08ED00E038B504460D46072902D90020FFF7C2FF1F2C02D90020FFF7BDFF04F092
:401140001F0000F1604000F564406D01EDB2057038BD00BF000000000230800803D000BF01380046FCD17047EFF3108072B6704780F31088704700BF80F0004002E000BF7E
:4011800081F0004142001FBF5FEA410392EA030F7FEA226C7FEA236C6AD04FEA1262D2EB1363C1BFD218414048404140B8BF5B42192B88BF704710F0004F40F4000020F05C
:4011C0007F4018BF404211F0004F41F4000121F07F4118BF494292EA030F3FD0A2F1010241FA03FC10EB0C00C3F1200301FA03F100F0004302D5494260EB4000B0F5000F10
:4012000013D3B0F1807F06D340084FEA310102F10102FE2A51D2B1F1004F40EBC25008BF20F0010040EA03007047490040EB000010F4000FA2F10102EDD1B0FA80FCACF1D3
:40124000080CB2EB0C0200FA0CF0AABF00EBC25052421843BCBFD0401843704792F0000F81F4000106BF80F400000132013BB5E74FEA41037FEA226C18BF7FEA236C21D048
:4012800092EA030F04D092F0000F08BF0846704790EA010F1CBF0020704712F07F4F04D1400028BF40F00040704712F100723CBF00F50000704700F0004343F0FE4040F44C
:4012C000000070477FEA226216BF08467FEA23630146420206BF5FEA412390EA010F40F4800070474FF0000304E000BF10F0004348BF40425FEA000C08BF704743F09643B6
:4013000001464FF000001CE050EA010208BF70474FF000030AE000BF50EA010208BF704711F0004302D5404261EB41015FEA010C02BF84460146002043F0B64308BFA3F1D0
:401340008053A3F50003BCFA8CF2083AA3EBC25310DB01FA02FC634400FA02FCC2F12002BCF1004F20FA02F243EB020008BF20F00100704702F1200201FA02FCC2F12002E2
:4013800050EA4C0021FA02F243EB020008BF20EADC7070474FF0FF0C1CEAD0521EBF1CEAD15392EA0C0F93EA0C0F6FD01A4480EA010C400218BF5FEA41211ED04FF0006384
:4013C00043EA501043EA5111A0FB01310CF00040B1F5000F3EBF490041EAD3715B0040EA010062F17F02FD2A1DD8B3F1004F40EBC25008BF20F00100704790F0000F0CF09E
:40140000004C08BF49024CEA502040EA51207F3AC2BFD2F1FF0340EAC250704740F400004FF00003013A5DDC12F1190FDCBF00F000407047C2F10002410021FA02F1C2F1CD
:40144000200200FA02FC5FEA310040F1000053EA4C0308BF20EADC70704792F0000F00F0004C02BF400010F4000F013AF9D040EA0C0093F0000F01F0004C02BF490011F44E
:40148000000F013BF9D041EA0C018FE70CEAD15392EA0C0F18BF93EA0C0F0AD030F0004C18BF31F0004CD8D180EA010000F00040704790F0000F17BF90F0004F084691F0C2
:4014C000000F91F0004F14D092EA0C0F01D142020FD193EA0C0F03D14B0218BF084608D180EA010000F0004040F0FE4040F40000704740F0FE4040F4400070474FF0FF0C0E
:401500001CEAD0521EBF1CEAD15392EA0C0F93EA0C0F69D0A2EB030280EA010C49024FEA402037D04FF0805343EA111143EA10130CF000408B4238BF5B0042F17D024FF41F
:40154000000C8B4224BF5B1A40EA0C00B3EB510F24BFA3EB510340EA5C00B3EB910F24BFA3EB910340EA9C00B3EBD10F24BFA3EBD10340EADC001B0118BF5FEA1C1CE0D1C4
:40158000FD2A3FF650AF8B4240EBC25008BF20F0010070470CF0004C4CEA50207F32C2BFD2F1FF0340EAC250704740F400004FF00003013A37E792F0000F00F0004C02BF02
:4015C000400010F4000F013AF9D040EA0C0093F0000F01F0004C02BF490011F4000F013BF9D041EA0C0195E70CEAD15392EA0C0F08D142027FF47DAF93EA0C0F7FF470AF21
:40160000084676E793EA0C0F04D14B023FF44CAF08466EE730F0004C18BF31F0004CCAD130F000427FF45CAF31F000437FF43CAF5FE700BF42000ED2B2F1FE4F0BD34FF053
:401640009E03B3EB126209D44FEA002343F0004323FA02F070474FF00000704712F1610F01D1420202D14FF0FF3070474FF00000704700BF014B1868704700BF4081FF1FF5
:401680000E4B70B51E460E4C0025E41AA410A54204D056F8253098470135F8E700F050F8084B094C1E46E41AA4100025A54204D056F8253098470135F8E770BD4C170000C8
:4016C0004C1700004C1700005417000010B5431E0A44914204D011F8014B03F8014FF8E710BD03460244934202D003F8011BFAE770470000000000005541525420657272C8
:40170000000000002020202020000000035B0040244300404000000030510040400000000140001000140140000800400140000A004C0140000200500140200043000000C7
:40174000F8B500BFF8BC08BC9E4670474D0000009D040000F8B500BFF8BC08BC9E4670472900000078170000C880FF1F8000000038000000000000000000000001FF0000A7
:401780000000E02EC05D00001800000000366E0100000000000000000000000000000000000000000000000000000000000000003C170000000000000000000000000000EE
:4017C000000000000000000000000000000000000000000000000000000000000000000000000000000000000000000000000000E080FF1F0000000000000000000000006B
:4018000000000000000000000000000000000000000000000000000000000000000000000000000000000000000000000000000000000000000000000000000000000000A8
:401840000000000000000000000000000000000000000000000000000000000000000000000000000000000000000000000000000000000000000000000000000000000068
:401880000000000000000000000000000000000000000000000000000000000000000000000000000000000000000000000000000000000000000000000000000000000028
:4018C00000000000000000000000000000000000000000000000000000000000000000000000000000000000000000000000000000000000000000000000000000000000E8
:020000040003F7
:0200000480007A
:4000000002520040036400400165004001030140530A0140450B0140530C0140440D01404E0E01402D0F0140021501404216014020170140011B0140024001400341014051
:40004000024401400345014007460140024701400448014003490140044C0140024D01400550014001510140148078088B728D388E0F870DE602020C040C0E0C0F01120C9F
:4000800014081602180C1B01240426022C0C2E01300C360337013E403F404025410342064401460C470E481449FF4AFF4BFF4C624DA04EF04F41500C580459045A045C021D
:4000C0005D025F016640670269106A306B106D106E106F12820184078502880289068C068D078E019006910892019508980199079A069C049F01A104A406A501A706A908FA
:40010000AD06AF01B007B108B507BA02D602D711D804D904DB04DC22DD20DF01004003500440060807500A440B200C800E44102012021620180119011C401F01228025209E
:40014000260127402C802D102E042F0131303604375138803E684021420449104A01504053085F206C146D106E086F21748075A076289244932094289510970298209B30C0
:400180009DA19E209F40A020A202A680A728B204B420B704C0FDC2DEC425CAF0CCF4CE78D00ED20CD620004F0210040C0508080409040B010C080D081002110113061502EE
:4001C00016401701187319081A0C1C03204C222324412507287F29072D082E33307C31073308340F3A223F04580459045C225F01840C860387028E088F08900192069401CC
:400200009506960E99049D06A60CAA03AB08AD01B106B301B40FB508B902BA20BF15C004C740C9FFCA07CBFFCC40CD20CEF0CF05D008D418D604D804D904DA04DB04DC0280
:40024000DD22DF01E040E1A8E240E3200221040205A006200AA00D090E06100813081680175419101E44200421022204260327202A402B082D502F213114326034203601A1
:40028000371439083B803D043EC43F1041024C014D405008510452015901600462806340874089018B1092A093B09428954C964099049A409B189E01A108A428A620AA0281
:4002C000C0F5C2FCC4F6CA7CCCEECE7AD001D601D80DE8010104044A0502063409480B800E400F181013122C141315611664178819E01A481B111D811F602180240325A0E6
:4003000026142A35300F326833043503361037F839203A0A3E403F044056410345E046C0470B481A49FF4AFF4BFF4EF04F44500C5401580459045A045B045C225D225F0120
:4003400066C06A406B028406880692019404960298029A0CA401A801AE01B208B406B601B880B902BB08BF01D804D904DC22DF01022104280AA00B440C200E400F101018E7
:4003800012101544171019841AA01B081D081F5021502204230C260227102A053260330839A83A403B014308480849014B415214581059815A086730C065C27EC4E6CA03E7
:4003C000CC0ECE0FD002D20CD60FAF80EC101A01260136014030410649FF4AFF4BFF4DA04F04501858045A045C015D015F01604062C06440654066C068C06AC06CC06EC021
:400400008702930497029B01A501A601B101B201B302B504BF04C020C106C5D1C702C813C9FFCAFFCBFFCDAFCE0FCF04D018D280D405D804D904DA04DB04DC11DD11DF01D8
:40044000E040E2C0E440E540E6C0E8C0EAC0ECC0EEC00C201020170819081F802004220423882908302031023208380440044708482049014A084E08520859015A085B80E7
:400480007102C240C424CA02CC07CE02D044D224D60BEC103220CC108620A620E6407D20DE010F01A910C20145089308B304B701D001E801EE089308A50825105720C820DE
:4004C000D440AF20B510EE1053049308A508D404B508EC0800040C040E0410021A02000300636300000080003C0000000000000000080800080000000400000F0F00040017
:4005000000000000807F7F000000000025001801000000000000000000000000000000000000000000000000000000000000000000000000000000000000000000000000FF
:40054000000000000000000000000000000000000000000000000000000000000000000000000000000000000000000000000000000000000000000000000000000000007B
:40058000000000000000000000000000000000000000000000000000000000000000000000000000000000000000000000000000000000000000000000000000000000003B
:4005C00000000000000000000000000000000000000000000000000000000000000000000000000000000000000000000000000000000000000000000000000000000000FB
:4006000000000000000000000000000000000000000000000000000000000000000000000000000000000000000000000000000000000000000000000000000000000000BA
:0200000490006A
:0400000000004005B7
:0200000490105A
:04000000BC90ACAF55
:0200000490303A
:02000000F5C049
:0200000490402A
:4000000000000000000000000000000000000000000000000000000000000000000000000000000000000000000000000000000000000000000000000000000000000000C0
:400040000000000000000000000000000000000000000000000000000000000000000000000000000000000000000000000000000000000000000000000000000000000080
:400080000000000000000000000000000000000000000000000000000000000000000000000000000000000000000000000000000000000000000000000000000000000040
:4000C0000000000000000000000000000000000000000000000000000000000000000000000000000000000000000000000000000000000000000000000000000000000000
:0200000490501A
:0C00000000012E16106900012E200629B8
:00000001FF