:400000000080002011000000BD050000BD05000008B5044B1A6803F53F5302331A6000F0D5FA00BFFA46004010B5054C237833B9044B13B10448AFF300800123237010BD24
:400040004881FF1F0000000008150000084B10B51BB108490848AFF300800848036803B910BD074B002BFBD0BDE81040184700BF000000004C81FF1F08150000C880FF1FC8
:400080000000000008B501230B7008B10122027040F2A46001F06AF80021084600F044FE044800F0D9FD012000F002FB012000F00BFB08BD0C15000010B50124047040F2BF
:4000C000A46001F0C7F80021084600F02DFE054800F0C2FD204600F003FB204600F00CFB10BD00BF1415000070B504460E46154600F0B2F820707A280BD0322804D12946FD
:400100003046FFF7BFFF70BD382802D12846FFF7D3FF70BDF0B583B062B600248DF807408DF806407A238DF805304BF6803001F017F84BF6803001F087F800F0E7FD012089
:4001400000F098FD00F0B8FC00F06CFE00F078F801F05EF801F0D0F840F6B83001F006F840F6B83001F076F801F034F926462546274601F0E9F810F0800F33D09DF8073080
:400180003BB1B7F57A7F02D20137BFB201E00A3400279DF806302BB3B5F57A7F02D20135ADB211E000258DF80650284600F080FA284600F089FA284600F092FA284600F044
:4001C0009BFA012000F056FDC72E02D80136B6B208E040F6B83000F0C9FF40F6B83001F039F800260021012000F09EFDA0B200F0B9FD00F045FA30B10DF106010DF1070095
:40020000FFF740FF12E000F043FA30B102A8012300F8023DFFF750FF08E000F041FA28B1012000F027FD00248DF807400DF106020DF107010DF10500FFF756FF99E700BF95
:4002400008B5012001F0ECF8012001F0F5F8012001F0FEF808BD00BF08B5002001F0ECF801F0C6F820B9012001F0E6F8302008BD01F0C6F820B9012001F0DEF8382008BD74
:4002800001F0C6F820B9012001F0D6F8322008BD012001F0D1F87A2008BD00BFFEE700BFF0B40022174611E050F82760F3B226F0FF0608E001EB420511F812406D78A5552A
:4002C0000132013BDBB2002BF4D101371E2FEBD9F0BC70470D4B1B78DBB203F007010C4A11701B09013213708023A2F2627213702021F0321170022102F6830211708032FD
:4003000013704422034B1A70704700BFCF0100496E5800407658004008B50A46002101F0EAF808BD08B501F0DBF808BD38B50922344B1A80182334490B70002402310C8006
:4003400050200231087002310A80304A13704FF49C71023211800232137004222C492D48FFF7E0FF02222C4B1A7008224FF040231A70032103F500731970284B1B78DBB2D1
:4003800027490B70274B1A8041F25122023B1A8019250CE0244B1B7803F0010343EA440404F003044FF4F07001F05EF8013D0DB1032CEFD115B90320FFF770FF1B4B4FF462
:4003C00080721A8007221A70002219490A704820023108701A700222033B1A7004220A331A70144A137843F00F031370013A137843F001031370013A137843F0800313701A
:4004000038BD00BF80400040824000408A400040C0050048004100400043004008010049A146004022420040254200400440004006400040A2430040012807D8044B53F856
:4004400020201844017A13780B431370704700BF1C150000012808D8044B53F820201844017A137823EA0103137070471C15000038B572B63B4A137843F00403137000249B
:400480000BE0394863001A19510001440A46098AD068FFF741FF0134E4B2072CF1D900240BE03149A3001819420088188022016CC06BFFF737FF0134E4B2002CF1D02B49BA
:4004C0004FF09040FFF7ECFE0A24294B1C70294A137843F0020313701032137843F002031370254D2B7843F040032B70A2F58632513A137843F01003137008221F49204850
:40050000FFF710FF08221F491F48FFF70BFF22461E491F48FFF706FF22461E491E48FFF701FF08221D491E48FFF7FCFE22461D491D48FFF7F7FE1D4A137843F008031370AA
:400540001B4C61232370FFF7F1FE812323700122184B1A70FFF7BEFE0E2229461648FFF7E1FE38BDE84600401C1500007C0000488358004003500140A04300408405004852
:40058000025100408C050048C251004094050048F0510040A005004810510040AC05004822510040B405004830510040224300400048004004000840B043004008B500F0C5
:4005C00063FF03680C2B00D1FEE7FEE708B5104E104D16E029686B68AC68002204E051F8040B43F8040B0432A242F8D1E868002203E0002143F8041B04328242F9D1103512
:40060000013E002EE6D100F045FFFFF783FDFEE7010000008815000008B5104A104B1A60104A136843F40073136000230AE0032B03D80D4A52F8231000E00C490C4A42F8DC
:40064000231001332F2BF2D90A4B1A780A4B1A70074A0A4B1A60FFF70BFF08BD0004FA050CED00E014ED00E000000000BD0500000080FF1FBC760040C080FF1F08ED00E081
:40068000024B1878C0F34010704700BFC1510040024B1878C0F30010704700BFC1510040024B1878C0F3C000704700BFC1510040044A137803F0FE0300F001001843107079
:4006C000704700BF00510040044A137803F0FD03400000F0020018431070704700510040044A137803F0DF03400100F0200018431070704700510040044A137803F0BF0322
:40070000800100F040001843107070470051004010B59DF80840012C51D1013809282ED8DFE800F0052D2D052D2D0F192D230F2B03D92548007840B222E02448007840B2D2
:400740001EE00F2B03D92248007840B218E02148007840B214E00F2B03D91F48007840B20EE01E48007840B20AE00F2B03D91C48007840B204E01B48007840B200E00020AE
:4007800001EB401101FB02F1C90B8AB20D2B0BD8C3F10E0289B211418AB2611E124800EB810101338B7005E0631E0F4901EB83030F219970013C0C4B23F8242010BD002097
:4007C00000F072FC10BD00BF180100491C010049190100491D0100491A0100491E0100491B0100491F0100496481FF1FF8B5074600F042FE06460D4D2B7843F003032B7099
:400800000B4C237843F0030323700A4B1F70032000F062FC2B7803F0FC032B70237803F0FC032370304600F02BFEF8BDF8460040F94600409258004038B50022304B1A71D5
:4008400001285CD138222F4B1A70042202331A70062201331A70002401331C7001331C703F2201331A7002331C7001331C7001331C7001250A331D70502203F527631A7087
:400880000A2201331A702C2201331A7001331C70442203331A70482201331A7001331D7002331D70112201331A70192201331A70972201331A705220FFF798FF5822124B7A
:4008C0001A7001331C700223104A1370013213700F4B1C7001331C70204600F0C1FA43F233320C4B1A602946052000F0DDFA2946252000F05FFB08491D2000F0F7FB38BD16
:400900006481FF1F004E0040945800409A5800409C5800407881FF1FE10A0000F0B583B0284D01272F70284E00247471102000F0A9FA102000F02CFB07211D2000F0EAFBBB
:400940000422224B1A7001331C7007331C70204A137843F0180313701E4B1C7003F2F5231C7001331C700A22A3F209331A7001331C7002331C705B2205331A705E220133C5
:400980001A7004331C701422A3F68C231A70009710234FF4004248F6F0510220FFF7B8FE2B78013B06EB83039A780B4B1A702B78013B36F82320094B1A802878FFF73CFFEF
:4009C00003B0F0BDCC80FF1F6481FF1F96580040075B0040935800400E4E00400C4E004070B500F049FD06462A4B1B782A4B1A7842F001021A701A7842F010021A701033E1
:400A00001A7842F001021A701A7842F010021A70224D2B7843F002032B70214C237843F0020323701F4A137843F003031370032000F052FB2B7803F0FD032B70237803F07E
:400A4000FD032370184A137843F0060313707A22164B1A70164A137843F0010313701032137843F0010313700F3A137843F0020313701032137843F0020313704FF00053DB
:400A80000C4A1360A2F5C0721360304600F0F8FC70BD00BFCC80FF1FAA430040F8460040F9460040915800407758004082580040A143004080E200E008B5084B9B794BB977
:400AC000064BDB7913F0FF0F01D1FFF727FF0122024B9A71FFF784FF08BD00BF6481FF1F704700BF10B50B4C237803F09F032370237803F0F00323702378184340F0100038
:400B00002070012000F0E8FA237803F0EF03237010BD00BF2051004038B505460E4C237843F020032370237803F0BF032370002000F0D2FA237803F0F003237023781D43FE
:400B400045F010052570012000F0C6FA237803F0EF03237038BD00BF2051004070B5354B1A7802F08002D2B21A7033490A7802F0F00242F00F020A7001310A7802F0F0025D
:400B80000A7001310A7802F0F0020A701A7802F0DF021A701A7842F040021A704FF4CA76002000F099FA234D2B7843F010032B70012000F091FA214B1C78E4B22B7803F048
:400BC000EF032B70002000F087FA04F00804E4B22B7843F010032B70012000F07DFA2B7803F0EF032B7014B90A2000F075FA013E0CB1002ED4D10F4A137803F0BF031370D1
:400C0000137803F08003DBB213700232137803F0F00313700132137803F0F00343F00F0313700132137803F0F00343F00F03137070BD00BF205100402251004021510040A1
:400C400010B50446FFF78AFF2009FFF765FF04F00F00FFF761FF10BD38B505460078012404E0FFF7EDFF285D0134E4B20028F8D138BD00BF10B50446FFF770FF2009FFF71A
:400C800031FF04F00F00FFF72DFF10BD08B5282000F00CFA0320FFF725FF052000F006FA0320FFF71FFF0F2000F000FA0320FFF719FF012000F0FAF90220FFF713FF0520F1
:400CC00000F0F4F90620FFF7D5FF0E20FFF7D2FF2C20FFF7CFFF0820FFF7CCFF0120FFF7C9FF0C20FFF7C6FF0320FFF7C3FF052000F0DCF908BD00BF08B50C20FFF7BAFF92
:400D00000122014B1A7008BD7081FF1F08B5054B5B7823B9FFF7BAFF0122024B5A70FFF7EBFF08BD7081FF1F08B5032819D8DFE800F002070D1381F08000FFF79BFF08BD8E
:400D4000A1F14000C0B2FFF795FF08BDA1F16C00C0B2FFF78FFF08BDA1F12C00C0B2FFF789FF08BD10B584B000238DF80E30092211E0144BA3FB0013DB081C4603EB8303F0
:400D80005900431ADBB2303304A9114401F80C3C2046013AD2B20928EBD80A4BA3FB0013DB0803EB83035900431ADBB2303304A9114401F80C3C01AB9818FFF74DFF04B099
:400DC00010BD00BFCDCCCCCC7222074B1A70202201331A7006225F3B1A70472210331A70002251331A7070478B64004010B500F043FB04460A4A137843F020031370013206
:400E0000137843F0100313700232137843F01003137000F03BF9204600F032FB10BD00BF9B64004008B5054B1B7823B9FFF7CCFF0122024B1A70FFF7D9FF08BD7281FF1F89
:400E400010B5002404E02046FFF704FB0134E4B2012CF8D9FF22014B1A7010BDCD80FF1F10B50446FFF7ECFF2046FFF7E5FA014B1C7010BDCD80FF1F014B188880B2704742
:400E800084400040034B1A7800F0F80010431870704700BF86400040024B187800F00700704700BF8640004070B504460D46FFF7F3FF0646FFF7E0FFA04257D02C4B1B78E1
:400EC00003F00203DAB296B900B184B938B9294B1C80294A137803F0BF03137070BD264A137843F040031370224B1C8070BD22B3002322490B7002260F310E7004310B702F
:400F00000C390B7803F07F030B701B4B1B7813F0080F00D08CB91A4B18800721013B1970164B1B7813F0010FFAD111490B7803F0FD030B700021114B19700D4B1B7813F0D6
:400F4000020F0DD00E4B1C800DB1032200E001220A4B1A70094B1B7813F0010FFAD170BD044B1C8002490B7813430B7070BD00BFA2430040844000408640004001400040B1
:400F800002400040014B188880B2704700410040034B1A7800F0F80010431870704700BF02410040024B187800F00700704700BF0241004070B505460E46FFF7F3FF0446FA
:400FC000FFF7E0FFA84256D02B4B1B7803F0010294B900B185B938B9284B1D80284A137803F0BF03137070BD254A137843F040031370224B1D8070BD22B3002321490B7067
:40100000012413310C7004390B7008390B7803F07F030B701A4B1B7813F0080F00D08DB9194B18800721013B1970164B1B7813F0010FFAD110490B7803F0FE030B70002110
:40104000104B19700C4B1B7813F0010F0DD00E4B1D800EB1032200E001220A4B1A70094B1B7813F0010FFAD170BD044B1D8002490B7813430B7070BDA143004000410040A7
:40108000024100400140004002400040054A137843F0080313701032137843F008031370704700BFA243004001BE704710B5044605E0084B186800F0D7F9A4F50044B4F563
:4010C000004FF6D8034B586800FB04F000F0CCF910BD00BFD080FF1F08B5034B1B7A00FB03F000F0C1F908BDD080FF1F70B504460E46074B1D681F2802D90020FFF7D4FF17
:4011000004F01F04103455F8240045F8246070BD08ED00E038B504460D46072902D90020FFF7C2FF1F2C02D90020FFF7BDFF04F01F0000F1604000F564406D01EDB20570FD
:4011400038BD00BF024A137843F080031370704777650040014B1880704700BF0C6A0040014B1880704700BF8C6A0040014B1880704700BF4C6A0040014B1870704700BF9E
:4011800087650040014B1878704700BF67650040014B188880B27047AC6A004008B501E0FFF7F6FFFFF7EEFF10F0100FF8D108BD10B5154A137803F0C00343F0090313703A
:4011C0001F32137843F001031370104C237843F0010323704BF68030FFF7BCFF4BF68030FFF7BEFF45F6C050FFF7C0FF0020FFF7C3FF00F041F9237843F01003237000F0EC
:401200003FF9FFF7CBFF10BD776500409765004008B5054B1B7823B9FFF7CAFF0122024B1A70FFF78FFF08BD7481FF1F024A137843F080031370704776650040014B18803A
:40124000704700BF086A0040014B1880704700BF886A0040014B1880704700BF486A0040014B1870704700BF85650040014B1878704700BF65650040014B188880B27047C9
:40128000A86A004008B501E0FFF7F6FFFFF7EEFF10F0100FF8D108BD10B5154A137803F0C00343F0090313701E32137843F001031370104C237843F0010323704BF6803055
:4012C000FFF7BCFF4BF68030FFF7BEFF45F6C050FFF7C0FF0020FFF7C3FF00F0CDF8237843F01003237000F0CBF8FFF7CBFF10BD766500409565004008B5054B1B7823B987
:40130000FFF7CAFF0122024B1A70FFF78FFF08BD7581FF1F084A137843F0010313701032137843F00103137002F64D32137843F001031370704700BFA3430040014B18704D
:40134000704700BF034F0040014B1878704700BF034F0040014B1880704700BF044F0040014B1880704700BF064F004008B5164A137803F0010313700232137803F0FC03D2
:401380001370124B1A7802F0CF021A701A7842F030021A701A7802F0F0021A701A7842F00F021A700A4A137843F00103137045F6BF50FFF7CFFF45F6BF50FFF7D1FF0020B8
:4013C000FFF7BCFF08BD00BF004F00400B4F0040014F004008B5054B1B7823B9FFF7C6FF0122024B1A70FFF795FF08BD7681FF1F024B1878C0F34010704700BF3151004052
:40140000024B1878C0F38010704700BF31510040024B187800F00100704700BFF1510040044A137803F0FD03400000F0020018431070704730510040044A137803F0F70377
:40144000C00000F0080018431070704730510040044A137803F0EF03000100F01000184310707047305100400230800803D000BF01380046FCD17047EFF3108072B67047AF
:4014800080F31088704700BF014B1868704700BF4081FF1F0E4B70B51E460E4C0025E41AA410A54204D056F8253098470135F8E700F058F8084B094C1E46E41AA410002502
:4014C000A54204D056F8253098470135F8E770BD7015000070150000701500007815000010B5431E0A44914204D011F8014B03F8014FF8E710BD03460244934202D003F8B9
:40150000011BFAE770470000000000004A756D70000000004475636B00000000035B00402443004040000000004F0040180040510040300000000140800A000B014000058B
:4015400000140140000800400140000A004C01400002005001402000800A01400405004880004300F8B500BFF8BC08BC9E4670474D00000019060000F8B500BFF8BC08BC95
:401580009E4670472900000098150000C880FF1F80000000380000000000000001FF00000000E02EC05D00001800000000366E0100000000000000000000000000000000B4
:4015C0000000000000000000000000000000000062150000000000000000000000000000000000000000000000000000000000000000000000000000000000000000000074
:4016000000000000000000000000000000000000E080FF1F00000000000000000000000000000000000000000000000000000000000000000000000000000000000000002C
:40164000000000000000000000000000000000000000000000000000000000000000000000000000000000000000000000000000000000000000000000000000000000006A
:40168000000000000000000000000000000000000000000000000000000000000000000000000000000000000000000000000000000000000000000000000000000000002A
:4016C00000000000000000000000000000000000000000000000000000000000000000000000000000000000000000000000000000000000000000000000000000000000EA
:4017000000000000000000000000000000000000000000000000000000000000000000000000000000000000000000000000000000000000000000000000000000000000A9
:020000040003F7
:0200000480007A
:40000000044F004003520040036400400265004004020140030301400205014002090140340B0140530C01403A0D0140480E01402C0F0140381401401C1501404A160140CD
:4000400027170140011B0140024001400341014006420140034401400445014007460140024701400548014005490140044C0140024D0140055001400151014001800A4BAC
:400080000D80164B0904148078088B728C388E0F850D870DB880BE40D804DF0118021A02E602AE01B401B348B584040207290D080E010F0817141C401D021E411F04240246
:4000C0002540261827602E602F50358036293D803E1A450E47404E0A4F0857105E206C146F157510762A921093A0946897089D109E22A104A223A540A608A710B610C0F002
:40010000C2E0C460CAF0CCF0CEF0D0D0D230D620E84001080201040C0573070C0804090C0D1C0E020F63100C11631202157F1601180E19041C0C1E02210F23702542280264
:4001400029212A0C2B802C082F733001311C330F3580360E37603A803B083E0154185604580459045B045C335D305F018503860C89038F01940C96039E03A208A401A50292
:40018000A606A801AA0EB20FB703B980BA08BF40C005C540C9FFCA07CBFFCC40CD20CEF0CF05D008D804D904DA04DC03DD03DF01E040E1A8E240E320000404400590062026
:4001C000074009800A200E090FA01080110413101602172019041A201E011F412002240125042622276029042D802E102F503510360D3880392C3B103D883E223F804881DF
:40020000504051805C01674A874090049128932094A896109D04A201A480C0F4C2F5C4CECAF2CCE0CEFED208D680D8B00409050E06100770090E0BD00C800F561203141C80
:4002400015A8164217521820190C1B121C141F802010244C261128502A0C2BA02D01301F31023220333C34C035E0370138203B283E043F414034410245E046CB470E481E80
:4002800049FF4AFF4BFF4EF04F44500C5401580459045A045B045C335D335F0166C06A406B02841F881F9409960698129A059C049E18B403B61CD804DC03DF0100440428F9
:4002C00009880A400B080E16108012081308180419181A401B021E061F10200221142208238829102B0230B0310C38C03928404041144901502051805304581059095B80AC
:400300008401C065C2EFC40ECA0CCC0ECE0ED007D60FE4084040410349FF4AFF4BFF4DA04F0450185A045F01604062C06440654066C068C06AC06CC06EC08B018E01A101BD
:40034000A602AA01B401B602B701BE10C040C102C5D0C610C702C81AC9FFCAFFCBFFCDAFCE0FCF04D018D405D804D904DA04DB04DF01E040E2C0E440E540E6C0E8C0EAC0BD
:40038000ECC0EEC0070116281E041F8026402F803E2041084301460847014F015508562857205E845F019B01A720AB20AF80C080C460CA80CE20D0A3D6D0E820030113022F
:4003C00016011A0127023302360137014060410249FF4AFF4BFF4DA04F0450185280580459045A045B045C025D025F01604062C06440654066C068C06AC06CC06EC08602CE
:4004000092019B01A604AA02AD01B002B401B604B701BE01C020C106C5D1C702C813C9FFCAFFCBFFCDAFCE0FCF04D018D280D405D804D904DA04DB04DC22DD22DF01E04003
:40044000E2C0E440E540E6C0E8C0EAC0ECC0EEC0000409020C200F2010201204184419401B101F802240272129402F20302037013C0240044604482849014F205008520483
:40048000580859015A80710274018048C004C268C406CA48CC84CE80D024D224D60BE8203220CC108620A620E6405B025F029B02AF02D6C0EE407C208440DE010F01984006
:4004C0009C20C20144109840B420B701D001E802EE0898409C10210150205720C840D460A820AF20B101EA80EE10584098409C10D401B010E80400080C080E0810051A0597
:400500000003000000800100014000000020010404E100100000000201F9000000000220003902C000E100080400000404C000000000001804060200000101F880000088E8
:400540000000041134060500010EC00009FFFFFF62A0F0410C00000000000211040404043333000100000000000040020010301000101012000000000000000000000000C5
:400580000000000000636300000080003C000000000000000100000D0C000C00200000000400000F0F00040000000000807F7F0000000000E00000E01A00000000000000F5
:4005C00025001801000000000000000000000000000000000000000000000000000000000000000000000000000000000000000000000000000000000000000000000000BD
:4006000000000000000000000000000000000000000000000000000000000000000000000000000000000000000000000000000000000000000000000000000000000000BA
:40064000000000000000000000000000000000000000000000000000000000000000000000000000000000000000000000000000000000000000000000000000000000007A
:40068000000000000000000000000000000000000000000000000000000000000000000000000000000000000000000000000000000000000000000000000000000000003A
:4006C00000000000000000000000000000000000000000000000000000000000000000000000000000000000000000000000000000000000000000000000000000000000FA
:0200000490006A
:0400000000004005B7
:0200000490105A
:04000000BC90ACAF55
:0200000490303A
:020000005ED0D0
:0200000490402A
:4000000000000000000000000000000000000000000000000000000000000000000000000000000000000000000000000000000000000000000000000000000000000000C0
:400040000000000000000000000000000000000000000000000000000000000000000000000000000000000000000000000000000000000000000000000000000000000080
:400080000000000000000000000000000000000000000000000000000000000000000000000000000000000000000000000000000000000000000000000000000000000040
:4000C0000000000000000000000000000000000000000000000000000000000000000000000000000000000000000000000000000000000000000000000000000000000000
:0200000490501A
:0C00000000012E16106900012E1F6F3940
:00000001FF